{
	"data": {
		"bytecode": {
			"linkReferences": {},
			"object": "608060405234801561001057600080fd5b506113ce806100206000396000f3fe60806040526004361061002d5760003560e01c8063293ccb501461003057806384800812146100595761002e565b5b005b34801561003c57600080fd5b5061005760048036038101906100529190610a24565b610082565b005b34801561006557600080fd5b50610080600480360381019061007b9190610a64565b61043e565b005b7fdd970dd9b5bfe707922155b058a407655cb18288b807e2216442bca8ad83d6b560016040516100b29190610e53565b60405180910390a1600073ca143ce32fe78f1f7019d7d551a6402fc5350c7373ffffffffffffffffffffffffffffffffffffffff1663e6a439058473bb4cdb9cbd36b01bd1cbaebf2de08d9173bc095c6040518363ffffffff1660e01b815260040161011f929190610cfb565b60206040518083038186803b15801561013757600080fd5b505afa15801561014b573d6000803e3d6000fd5b505050506040513d601f19601f8201168201806040525081019061016f91906109b7565b90507fdd970dd9b5bfe707922155b058a407655cb18288b807e2216442bca8ad83d6b560026040516101a19190610d7b565b60405180910390a1600073ffffffffffffffffffffffffffffffffffffffff168173ffffffffffffffffffffffffffffffffffffffff161415610219576040517f08c379a000000000000000000000000000000000000000000000000000000000815260040161021090610da9565b60405180910390fd5b60008173ffffffffffffffffffffffffffffffffffffffff16630dfe16816040518163ffffffff1660e01b815260040160206040518083038186803b15801561026157600080fd5b505afa158015610275573d6000803e3d6000fd5b505050506040513d601f19601f8201168201806040525081019061029991906109b7565b905060008273ffffffffffffffffffffffffffffffffffffffff1663d21220a76040518163ffffffff1660e01b815260040160206040518083038186803b1580156102e357600080fd5b505afa1580156102f7573d6000803e3d6000fd5b505050506040513d601f19601f8201168201806040525081019061031b91906109b7565b905060008273ffffffffffffffffffffffffffffffffffffffff168673ffffffffffffffffffffffffffffffffffffffff161461035957600061035b565b845b905060008273ffffffffffffffffffffffffffffffffffffffff168773ffffffffffffffffffffffffffffffffffffffff161461039957600061039b565b855b9050600087876040516020016103b2929190610d24565b60405160208183030381529060405290508573ffffffffffffffffffffffffffffffffffffffff1663022c0d9f848430856040518563ffffffff1660e01b81526004016104029493929190610efd565b600060405180830381600087803b15801561041c57600080fd5b505af1158015610430573d6000803e3d6000fd5b505050505050505050505050565b7fdd970dd9b5bfe707922155b058a407655cb18288b807e2216442bca8ad83d6b5604560405161046e9190610d4d565b60405180910390a160003373ffffffffffffffffffffffffffffffffffffffff16630dfe16816040518163ffffffff1660e01b815260040160206040518083038186803b1580156104be57600080fd5b505afa1580156104d2573d6000803e3d6000fd5b505050506040513d601f19601f820116820180604052508101906104f691906109b7565b905060003373ffffffffffffffffffffffffffffffffffffffff1663d21220a76040518163ffffffff1660e01b815260040160206040518083038186803b15801561054057600080fd5b505afa158015610554573d6000803e3d6000fd5b505050506040513d601f19601f8201168201806040525081019061057891906109b7565b9050600073ca143ce32fe78f1f7019d7d551a6402fc5350c7373ffffffffffffffffffffffffffffffffffffffff1663e6a4390584846040518363ffffffff1660e01b81526004016105cb929190610cfb565b60206040518083038186803b1580156105e357600080fd5b505afa1580156105f7573d6000803e3d6000fd5b505050506040513d601f19601f8201168201806040525081019061061b91906109b7565b90508073ffffffffffffffffffffffffffffffffffffffff163373ffffffffffffffffffffffffffffffffffffffff161461068b576040517f08c379a000000000000000000000000000000000000000000000000000000000815260040161068290610da9565b60405180910390fd5b3073ffffffffffffffffffffffffffffffffffffffff168873ffffffffffffffffffffffffffffffffffffffff16146106f9576040517f08c379a00000000000000000000000000000000000000000000000000000000081526004016106f090610eaf565b60405180910390fd5b600080868681019061070b91906109e4565b91509150600060016103e56003846107239190610ffd565b61072d9190610fcc565b6107379190610f76565b9050600081836107479190610f76565b90507fdd970dd9b5bfe707922155b058a407655cb18288b807e2216442bca8ad83d6b5836040516107789190610e25565b60405180910390a17fdd970dd9b5bfe707922155b058a407655cb18288b807e2216442bca8ad83d6b58b6040516107af9190610ecf565b60405180910390a17fdd970dd9b5bfe707922155b058a407655cb18288b807e2216442bca8ad83d6b58a6040516107e69190610e81565b60405180910390a17fdd970dd9b5bfe707922155b058a407655cb18288b807e2216442bca8ad83d6b58260405161081d9190610dc9565b60405180910390a17fdd970dd9b5bfe707922155b058a407655cb18288b807e2216442bca8ad83d6b5816040516108549190610df7565b60405180910390a18373ffffffffffffffffffffffffffffffffffffffff1663a9059cbb33836040518363ffffffff1660e01b8152600401610897929190610d24565b602060405180830381600087803b1580156108b157600080fd5b505af11580156108c5573d6000803e3d6000fd5b505050506040513d601f19601f820116820180604052508101906108e99190610aec565b50505050505050505050505050565b6000813590506109078161133c565b92915050565b60008151905061091c8161133c565b92915050565b60008135905061093181611353565b92915050565b6000815190506109468161136a565b92915050565b60008083601f8401126109625761096161117d565b5b8235905067ffffffffffffffff81111561097f5761097e611178565b5b60208301915083600182028301111561099b5761099a611182565b5b9250929050565b6000813590506109b181611381565b92915050565b6000602082840312156109cd576109cc61118c565b5b60006109db8482850161090d565b91505092915050565b600080604083850312156109fb576109fa61118c565b5b6000610a0985828601610922565b9250506020610a1a858286016109a2565b9150509250929050565b60008060408385031215610a3b57610a3a61118c565b5b6000610a49858286016108f8565b9250506020610a5a858286016109a2565b9150509250929050565b600080600080600060808688031215610a8057610a7f61118c565b5b6000610a8e888289016108f8565b9550506020610a9f888289016109a2565b9450506040610ab0888289016109a2565b935050606086013567ffffffffffffffff811115610ad157610ad0611187565b5b610add8882890161094c565b92509250509295509295909350565b600060208284031215610b0257610b0161118c565b5b6000610b1084828501610937565b91505092915050565b610b2281611057565b82525050565b6000610b3382610f49565b610b3d8185610f54565b9350610b4d8185602086016110e7565b610b5681611191565b840191505092915050565b610b6a816110b1565b82525050565b610b79816110c3565b82525050565b610b88816110d5565b82525050565b6000610b9b600483610f65565b9150610ba6826111a2565b602082019050919050565b6000610bbe600583610f65565b9150610bc9826111cb565b602082019050919050565b6000610be1600583610f65565b9150610bec826111f4565b602082019050919050565b6000610c04600383610f65565b9150610c0f8261121d565b602082019050919050565b6000610c27600f83610f65565b9150610c3282611246565b602082019050919050565b6000610c4a600683610f65565b9150610c558261126f565b602082019050919050565b6000610c6d600483610f65565b9150610c7882611298565b602082019050919050565b6000610c90600783610f65565b9150610c9b826112c1565b602082019050919050565b6000610cb3600783610f65565b9150610cbe826112ea565b602082019050919050565b6000610cd6600783610f65565b9150610ce182611313565b602082019050919050565b610cf5816110a7565b82525050565b6000604082019050610d106000830185610b19565b610d1d6020830184610b19565b9392505050565b6000604082019050610d396000830185610b19565b610d466020830184610cec565b9392505050565b60006040820190508181036000830152610d6681610b8e565b9050610d756020830184610b7f565b92915050565b60006040820190508181036000830152610d9481610bb1565b9050610da36020830184610b70565b92915050565b60006020820190508181036000830152610dc281610bd4565b9050919050565b60006040820190508181036000830152610de281610bf7565b9050610df16020830184610cec565b92915050565b60006040820190508181036000830152610e1081610c1a565b9050610e1f6020830184610cec565b92915050565b60006040820190508181036000830152610e3e81610c3d565b9050610e4d6020830184610cec565b92915050565b60006040820190508181036000830152610e6c81610c60565b9050610e7b6020830184610b61565b92915050565b60006040820190508181036000830152610e9a81610c83565b9050610ea96020830184610cec565b92915050565b60006020820190508181036000830152610ec881610ca6565b9050919050565b60006040820190508181036000830152610ee881610cc9565b9050610ef76020830184610cec565b92915050565b6000608082019050610f126000830187610cec565b610f1f6020830186610cec565b610f2c6040830185610b19565b8181036060830152610f3e8184610b28565b905095945050505050565b600081519050919050565b600082825260208201905092915050565b600082825260208201905092915050565b6000610f81826110a7565b9150610f8c836110a7565b9250827fffffffffffffffffffffffffffffffffffffffffffffffffffffffffffffffff03821115610fc157610fc061111a565b5b828201905092915050565b6000610fd7826110a7565b9150610fe2836110a7565b925082610ff257610ff1611149565b5b828204905092915050565b6000611008826110a7565b9150611013836110a7565b9250817fffffffffffffffffffffffffffffffffffffffffffffffffffffffffffffffff048311821515161561104c5761104b61111a565b5b828202905092915050565b600061106282611087565b9050919050565b600061107482611087565b9050919050565b60008115159050919050565b600073ffffffffffffffffffffffffffffffffffffffff82169050919050565b6000819050919050565b60006110bc826110a7565b9050919050565b60006110ce826110a7565b9050919050565b60006110e0826110a7565b9050919050565b60005b838110156111055780820151818401526020810190506110ea565b83811115611114576000848401525b50505050565b7f4e487b7100000000000000000000000000000000000000000000000000000000600052601160045260246000fd5b7f4e487b7100000000000000000000000000000000000000000000000000000000600052601260045260246000fd5b600080fd5b600080fd5b600080fd5b600080fd5b600080fd5b6000601f19601f8301169050919050565b7f6173646600000000000000000000000000000000000000000000000000000000600082015250565b7f7465737432000000000000000000000000000000000000000000000000000000600082015250565b7f2170616972000000000000000000000000000000000000000000000000000000600082015250565b7f6665650000000000000000000000000000000000000000000000000000000000600082015250565b7f616d6f756e7420746f2072657061790000000000000000000000000000000000600082015250565b7f616d6f756e740000000000000000000000000000000000000000000000000000600082015250565b7f7465737400000000000000000000000000000000000000000000000000000000600082015250565b7f616d6f756e743100000000000000000000000000000000000000000000000000600082015250565b7f2173656e64657200000000000000000000000000000000000000000000000000600082015250565b7f616d6f756e743000000000000000000000000000000000000000000000000000600082015250565b61134581611057565b811461135057600080fd5b50565b61135c81611069565b811461136757600080fd5b50565b6113738161107b565b811461137e57600080fd5b50565b61138a816110a7565b811461139557600080fd5b5056fea2646970667358221220ce8a587ce65e2e502d8b3ea5665dc3a336a8eebe55ff4ac0f7e87edd053dbddf64736f6c63430008070033",
			"opcodes": "PUSH1 0x80 PUSH1 0x40 MSTORE CALLVALUE DUP1 ISZERO PUSH2 0x10 JUMPI PUSH1 0x0 DUP1 REVERT JUMPDEST POP PUSH2 0x13CE DUP1 PUSH2 0x20 PUSH1 0x0 CODECOPY PUSH1 0x0 RETURN INVALID PUSH1 0x80 PUSH1 0x40 MSTORE PUSH1 0x4 CALLDATASIZE LT PUSH2 0x2D JUMPI PUSH1 0x0 CALLDATALOAD PUSH1 0xE0 SHR DUP1 PUSH4 0x293CCB50 EQ PUSH2 0x30 JUMPI DUP1 PUSH4 0x84800812 EQ PUSH2 0x59 JUMPI PUSH2 0x2E JUMP JUMPDEST JUMPDEST STOP JUMPDEST CALLVALUE DUP1 ISZERO PUSH2 0x3C JUMPI PUSH1 0x0 DUP1 REVERT JUMPDEST POP PUSH2 0x57 PUSH1 0x4 DUP1 CALLDATASIZE SUB DUP2 ADD SWAP1 PUSH2 0x52 SWAP2 SWAP1 PUSH2 0xA24 JUMP JUMPDEST PUSH2 0x82 JUMP JUMPDEST STOP JUMPDEST CALLVALUE DUP1 ISZERO PUSH2 0x65 JUMPI PUSH1 0x0 DUP1 REVERT JUMPDEST POP PUSH2 0x80 PUSH1 0x4 DUP1 CALLDATASIZE SUB DUP2 ADD SWAP1 PUSH2 0x7B SWAP2 SWAP1 PUSH2 0xA64 JUMP JUMPDEST PUSH2 0x43E JUMP JUMPDEST STOP JUMPDEST PUSH32 0xDD970DD9B5BFE707922155B058A407655CB18288B807E2216442BCA8AD83D6B5 PUSH1 0x1 PUSH1 0x40 MLOAD PUSH2 0xB2 SWAP2 SWAP1 PUSH2 0xE53 JUMP JUMPDEST PUSH1 0x40 MLOAD DUP1 SWAP2 SUB SWAP1 LOG1 PUSH1 0x0 PUSH20 0xCA143CE32FE78F1F7019D7D551A6402FC5350C73 PUSH20 0xFFFFFFFFFFFFFFFFFFFFFFFFFFFFFFFFFFFFFFFF AND PUSH4 0xE6A43905 DUP5 PUSH20 0xBB4CDB9CBD36B01BD1CBAEBF2DE08D9173BC095C PUSH1 0x40 MLOAD DUP4 PUSH4 0xFFFFFFFF AND PUSH1 0xE0 SHL DUP2 MSTORE PUSH1 0x4 ADD PUSH2 0x11F SWAP3 SWAP2 SWAP1 PUSH2 0xCFB JUMP JUMPDEST PUSH1 0x20 PUSH1 0x40 MLOAD DUP1 DUP4 SUB DUP2 DUP7 DUP1 EXTCODESIZE ISZERO DUP1 ISZERO PUSH2 0x137 JUMPI PUSH1 0x0 DUP1 REVERT JUMPDEST POP GAS STATICCALL ISZERO DUP1 ISZERO PUSH2 0x14B JUMPI RETURNDATASIZE PUSH1 0x0 DUP1 RETURNDATACOPY RETURNDATASIZE PUSH1 0x0 REVERT JUMPDEST POP POP POP POP PUSH1 0x40 MLOAD RETURNDATASIZE PUSH1 0x1F NOT PUSH1 0x1F DUP3 ADD AND DUP3 ADD DUP1 PUSH1 0x40 MSTORE POP DUP2 ADD SWAP1 PUSH2 0x16F SWAP2 SWAP1 PUSH2 0x9B7 JUMP JUMPDEST SWAP1 POP PUSH32 0xDD970DD9B5BFE707922155B058A407655CB18288B807E2216442BCA8AD83D6B5 PUSH1 0x2 PUSH1 0x40 MLOAD PUSH2 0x1A1 SWAP2 SWAP1 PUSH2 0xD7B JUMP JUMPDEST PUSH1 0x40 MLOAD DUP1 SWAP2 SUB SWAP1 LOG1 PUSH1 0x0 PUSH20 0xFFFFFFFFFFFFFFFFFFFFFFFFFFFFFFFFFFFFFFFF AND DUP2 PUSH20 0xFFFFFFFFFFFFFFFFFFFFFFFFFFFFFFFFFFFFFFFF AND EQ ISZERO PUSH2 0x219 JUMPI PUSH1 0x40 MLOAD PUSH32 0x8C379A000000000000000000000000000000000000000000000000000000000 DUP2 MSTORE PUSH1 0x4 ADD PUSH2 0x210 SWAP1 PUSH2 0xDA9 JUMP JUMPDEST PUSH1 0x40 MLOAD DUP1 SWAP2 SUB SWAP1 REVERT JUMPDEST PUSH1 0x0 DUP2 PUSH20 0xFFFFFFFFFFFFFFFFFFFFFFFFFFFFFFFFFFFFFFFF AND PUSH4 0xDFE1681 PUSH1 0x40 MLOAD DUP2 PUSH4 0xFFFFFFFF AND PUSH1 0xE0 SHL DUP2 MSTORE PUSH1 0x4 ADD PUSH1 0x20 PUSH1 0x40 MLOAD DUP1 DUP4 SUB DUP2 DUP7 DUP1 EXTCODESIZE ISZERO DUP1 ISZERO PUSH2 0x261 JUMPI PUSH1 0x0 DUP1 REVERT JUMPDEST POP GAS STATICCALL ISZERO DUP1 ISZERO PUSH2 0x275 JUMPI RETURNDATASIZE PUSH1 0x0 DUP1 RETURNDATACOPY RETURNDATASIZE PUSH1 0x0 REVERT JUMPDEST POP POP POP POP PUSH1 0x40 MLOAD RETURNDATASIZE PUSH1 0x1F NOT PUSH1 0x1F DUP3 ADD AND DUP3 ADD DUP1 PUSH1 0x40 MSTORE POP DUP2 ADD SWAP1 PUSH2 0x299 SWAP2 SWAP1 PUSH2 0x9B7 JUMP JUMPDEST SWAP1 POP PUSH1 0x0 DUP3 PUSH20 0xFFFFFFFFFFFFFFFFFFFFFFFFFFFFFFFFFFFFFFFF AND PUSH4 0xD21220A7 PUSH1 0x40 MLOAD DUP2 PUSH4 0xFFFFFFFF AND PUSH1 0xE0 SHL DUP2 MSTORE PUSH1 0x4 ADD PUSH1 0x20 PUSH1 0x40 MLOAD DUP1 DUP4 SUB DUP2 DUP7 DUP1 EXTCODESIZE ISZERO DUP1 ISZERO PUSH2 0x2E3 JUMPI PUSH1 0x0 DUP1 REVERT JUMPDEST POP GAS STATICCALL ISZERO DUP1 ISZERO PUSH2 0x2F7 JUMPI RETURNDATASIZE PUSH1 0x0 DUP1 RETURNDATACOPY RETURNDATASIZE PUSH1 0x0 REVERT JUMPDEST POP POP POP POP PUSH1 0x40 MLOAD RETURNDATASIZE PUSH1 0x1F NOT PUSH1 0x1F DUP3 ADD AND DUP3 ADD DUP1 PUSH1 0x40 MSTORE POP DUP2 ADD SWAP1 PUSH2 0x31B SWAP2 SWAP1 PUSH2 0x9B7 JUMP JUMPDEST SWAP1 POP PUSH1 0x0 DUP3 PUSH20 0xFFFFFFFFFFFFFFFFFFFFFFFFFFFFFFFFFFFFFFFF AND DUP7 PUSH20 0xFFFFFFFFFFFFFFFFFFFFFFFFFFFFFFFFFFFFFFFF AND EQ PUSH2 0x359 JUMPI PUSH1 0x0 PUSH2 0x35B JUMP JUMPDEST DUP5 JUMPDEST SWAP1 POP PUSH1 0x0 DUP3 PUSH20 0xFFFFFFFFFFFFFFFFFFFFFFFFFFFFFFFFFFFFFFFF AND DUP8 PUSH20 0xFFFFFFFFFFFFFFFFFFFFFFFFFFFFFFFFFFFFFFFF AND EQ PUSH2 0x399 JUMPI PUSH1 0x0 PUSH2 0x39B JUMP JUMPDEST DUP6 JUMPDEST SWAP1 POP PUSH1 0x0 DUP8 DUP8 PUSH1 0x40 MLOAD PUSH1 0x20 ADD PUSH2 0x3B2 SWAP3 SWAP2 SWAP1 PUSH2 0xD24 JUMP JUMPDEST PUSH1 0x40 MLOAD PUSH1 0x20 DUP2 DUP4 SUB SUB DUP2 MSTORE SWAP1 PUSH1 0x40 MSTORE SWAP1 POP DUP6 PUSH20 0xFFFFFFFFFFFFFFFFFFFFFFFFFFFFFFFFFFFFFFFF AND PUSH4 0x22C0D9F DUP5 DUP5 ADDRESS DUP6 PUSH1 0x40 MLOAD DUP6 PUSH4 0xFFFFFFFF AND PUSH1 0xE0 SHL DUP2 MSTORE PUSH1 0x4 ADD PUSH2 0x402 SWAP5 SWAP4 SWAP3 SWAP2 SWAP1 PUSH2 0xEFD JUMP JUMPDEST PUSH1 0x0 PUSH1 0x40 MLOAD DUP1 DUP4 SUB DUP2 PUSH1 0x0 DUP8 DUP1 EXTCODESIZE ISZERO DUP1 ISZERO PUSH2 0x41C JUMPI PUSH1 0x0 DUP1 REVERT JUMPDEST POP GAS CALL ISZERO DUP1 ISZERO PUSH2 0x430 JUMPI RETURNDATASIZE PUSH1 0x0 DUP1 RETURNDATACOPY RETURNDATASIZE PUSH1 0x0 REVERT JUMPDEST POP POP POP POP POP POP POP POP POP POP POP POP JUMP JUMPDEST PUSH32 0xDD970DD9B5BFE707922155B058A407655CB18288B807E2216442BCA8AD83D6B5 PUSH1 0x45 PUSH1 0x40 MLOAD PUSH2 0x46E SWAP2 SWAP1 PUSH2 0xD4D JUMP JUMPDEST PUSH1 0x40 MLOAD DUP1 SWAP2 SUB SWAP1 LOG1 PUSH1 0x0 CALLER PUSH20 0xFFFFFFFFFFFFFFFFFFFFFFFFFFFFFFFFFFFFFFFF AND PUSH4 0xDFE1681 PUSH1 0x40 MLOAD DUP2 PUSH4 0xFFFFFFFF AND PUSH1 0xE0 SHL DUP2 MSTORE PUSH1 0x4 ADD PUSH1 0x20 PUSH1 0x40 MLOAD DUP1 DUP4 SUB DUP2 DUP7 DUP1 EXTCODESIZE ISZERO DUP1 ISZERO PUSH2 0x4BE JUMPI PUSH1 0x0 DUP1 REVERT JUMPDEST POP GAS STATICCALL ISZERO DUP1 ISZERO PUSH2 0x4D2 JUMPI RETURNDATASIZE PUSH1 0x0 DUP1 RETURNDATACOPY RETURNDATASIZE PUSH1 0x0 REVERT JUMPDEST POP POP POP POP PUSH1 0x40 MLOAD RETURNDATASIZE PUSH1 0x1F NOT PUSH1 0x1F DUP3 ADD AND DUP3 ADD DUP1 PUSH1 0x40 MSTORE POP DUP2 ADD SWAP1 PUSH2 0x4F6 SWAP2 SWAP1 PUSH2 0x9B7 JUMP JUMPDEST SWAP1 POP PUSH1 0x0 CALLER PUSH20 0xFFFFFFFFFFFFFFFFFFFFFFFFFFFFFFFFFFFFFFFF AND PUSH4 0xD21220A7 PUSH1 0x40 MLOAD DUP2 PUSH4 0xFFFFFFFF AND PUSH1 0xE0 SHL DUP2 MSTORE PUSH1 0x4 ADD PUSH1 0x20 PUSH1 0x40 MLOAD DUP1 DUP4 SUB DUP2 DUP7 DUP1 EXTCODESIZE ISZERO DUP1 ISZERO PUSH2 0x540 JUMPI PUSH1 0x0 DUP1 REVERT JUMPDEST POP GAS STATICCALL ISZERO DUP1 ISZERO PUSH2 0x554 JUMPI RETURNDATASIZE PUSH1 0x0 DUP1 RETURNDATACOPY RETURNDATASIZE PUSH1 0x0 REVERT JUMPDEST POP POP POP POP PUSH1 0x40 MLOAD RETURNDATASIZE PUSH1 0x1F NOT PUSH1 0x1F DUP3 ADD AND DUP3 ADD DUP1 PUSH1 0x40 MSTORE POP DUP2 ADD SWAP1 PUSH2 0x578 SWAP2 SWAP1 PUSH2 0x9B7 JUMP JUMPDEST SWAP1 POP PUSH1 0x0 PUSH20 0xCA143CE32FE78F1F7019D7D551A6402FC5350C73 PUSH20 0xFFFFFFFFFFFFFFFFFFFFFFFFFFFFFFFFFFFFFFFF AND PUSH4 0xE6A43905 DUP5 DUP5 PUSH1 0x40 MLOAD DUP4 PUSH4 0xFFFFFFFF AND PUSH1 0xE0 SHL DUP2 MSTORE PUSH1 0x4 ADD PUSH2 0x5CB SWAP3 SWAP2 SWAP1 PUSH2 0xCFB JUMP JUMPDEST PUSH1 0x20 PUSH1 0x40 MLOAD DUP1 DUP4 SUB DUP2 DUP7 DUP1 EXTCODESIZE ISZERO DUP1 ISZERO PUSH2 0x5E3 JUMPI PUSH1 0x0 DUP1 REVERT JUMPDEST POP GAS STATICCALL ISZERO DUP1 ISZERO PUSH2 0x5F7 JUMPI RETURNDATASIZE PUSH1 0x0 DUP1 RETURNDATACOPY RETURNDATASIZE PUSH1 0x0 REVERT JUMPDEST POP POP POP POP PUSH1 0x40 MLOAD RETURNDATASIZE PUSH1 0x1F NOT PUSH1 0x1F DUP3 ADD AND DUP3 ADD DUP1 PUSH1 0x40 MSTORE POP DUP2 ADD SWAP1 PUSH2 0x61B SWAP2 SWAP1 PUSH2 0x9B7 JUMP JUMPDEST SWAP1 POP DUP1 PUSH20 0xFFFFFFFFFFFFFFFFFFFFFFFFFFFFFFFFFFFFFFFF AND CALLER PUSH20 0xFFFFFFFFFFFFFFFFFFFFFFFFFFFFFFFFFFFFFFFF AND EQ PUSH2 0x68B JUMPI PUSH1 0x40 MLOAD PUSH32 0x8C379A000000000000000000000000000000000000000000000000000000000 DUP2 MSTORE PUSH1 0x4 ADD PUSH2 0x682 SWAP1 PUSH2 0xDA9 JUMP JUMPDEST PUSH1 0x40 MLOAD DUP1 SWAP2 SUB SWAP1 REVERT JUMPDEST ADDRESS PUSH20 0xFFFFFFFFFFFFFFFFFFFFFFFFFFFFFFFFFFFFFFFF AND DUP9 PUSH20 0xFFFFFFFFFFFFFFFFFFFFFFFFFFFFFFFFFFFFFFFF AND EQ PUSH2 0x6F9 JUMPI PUSH1 0x40 MLOAD PUSH32 0x8C379A000000000000000000000000000000000000000000000000000000000 DUP2 MSTORE PUSH1 0x4 ADD PUSH2 0x6F0 SWAP1 PUSH2 0xEAF JUMP JUMPDEST PUSH1 0x40 MLOAD DUP1 SWAP2 SUB SWAP1 REVERT JUMPDEST PUSH1 0x0 DUP1 DUP7 DUP7 DUP2 ADD SWAP1 PUSH2 0x70B SWAP2 SWAP1 PUSH2 0x9E4 JUMP JUMPDEST SWAP2 POP SWAP2 POP PUSH1 0x0 PUSH1 0x1 PUSH2 0x3E5 PUSH1 0x3 DUP5 PUSH2 0x723 SWAP2 SWAP1 PUSH2 0xFFD JUMP JUMPDEST PUSH2 0x72D SWAP2 SWAP1 PUSH2 0xFCC JUMP JUMPDEST PUSH2 0x737 SWAP2 SWAP1 PUSH2 0xF76 JUMP JUMPDEST SWAP1 POP PUSH1 0x0 DUP2 DUP4 PUSH2 0x747 SWAP2 SWAP1 PUSH2 0xF76 JUMP JUMPDEST SWAP1 POP PUSH32 0xDD970DD9B5BFE707922155B058A407655CB18288B807E2216442BCA8AD83D6B5 DUP4 PUSH1 0x40 MLOAD PUSH2 0x778 SWAP2 SWAP1 PUSH2 0xE25 JUMP JUMPDEST PUSH1 0x40 MLOAD DUP1 SWAP2 SUB SWAP1 LOG1 PUSH32 0xDD970DD9B5BFE707922155B058A407655CB18288B807E2216442BCA8AD83D6B5 DUP12 PUSH1 0x40 MLOAD PUSH2 0x7AF SWAP2 SWAP1 PUSH2 0xECF JUMP JUMPDEST PUSH1 0x40 MLOAD DUP1 SWAP2 SUB SWAP1 LOG1 PUSH32 0xDD970DD9B5BFE707922155B058A407655CB18288B807E2216442BCA8AD83D6B5 DUP11 PUSH1 0x40 MLOAD PUSH2 0x7E6 SWAP2 SWAP1 PUSH2 0xE81 JUMP JUMPDEST PUSH1 0x40 MLOAD DUP1 SWAP2 SUB SWAP1 LOG1 PUSH32 0xDD970DD9B5BFE707922155B058A407655CB18288B807E2216442BCA8AD83D6B5 DUP3 PUSH1 0x40 MLOAD PUSH2 0x81D SWAP2 SWAP1 PUSH2 0xDC9 JUMP JUMPDEST PUSH1 0x40 MLOAD DUP1 SWAP2 SUB SWAP1 LOG1 PUSH32 0xDD970DD9B5BFE707922155B058A407655CB18288B807E2216442BCA8AD83D6B5 DUP2 PUSH1 0x40 MLOAD PUSH2 0x854 SWAP2 SWAP1 PUSH2 0xDF7 JUMP JUMPDEST PUSH1 0x40 MLOAD DUP1 SWAP2 SUB SWAP1 LOG1 DUP4 PUSH20 0xFFFFFFFFFFFFFFFFFFFFFFFFFFFFFFFFFFFFFFFF AND PUSH4 0xA9059CBB CALLER DUP4 PUSH1 0x40 MLOAD DUP4 PUSH4 0xFFFFFFFF AND PUSH1 0xE0 SHL DUP2 MSTORE PUSH1 0x4 ADD PUSH2 0x897 SWAP3 SWAP2 SWAP1 PUSH2 0xD24 JUMP JUMPDEST PUSH1 0x20 PUSH1 0x40 MLOAD DUP1 DUP4 SUB DUP2 PUSH1 0x0 DUP8 DUP1 EXTCODESIZE ISZERO DUP1 ISZERO PUSH2 0x8B1 JUMPI PUSH1 0x0 DUP1 REVERT JUMPDEST POP GAS CALL ISZERO DUP1 ISZERO PUSH2 0x8C5 JUMPI RETURNDATASIZE PUSH1 0x0 DUP1 RETURNDATACOPY RETURNDATASIZE PUSH1 0x0 REVERT JUMPDEST POP POP POP POP PUSH1 0x40 MLOAD RETURNDATASIZE PUSH1 0x1F NOT PUSH1 0x1F DUP3 ADD AND DUP3 ADD DUP1 PUSH1 0x40 MSTORE POP DUP2 ADD SWAP1 PUSH2 0x8E9 SWAP2 SWAP1 PUSH2 0xAEC JUMP JUMPDEST POP POP POP POP POP POP POP POP POP POP POP POP POP JUMP JUMPDEST PUSH1 0x0 DUP2 CALLDATALOAD SWAP1 POP PUSH2 0x907 DUP2 PUSH2 0x133C JUMP JUMPDEST SWAP3 SWAP2 POP POP JUMP JUMPDEST PUSH1 0x0 DUP2 MLOAD SWAP1 POP PUSH2 0x91C DUP2 PUSH2 0x133C JUMP JUMPDEST SWAP3 SWAP2 POP POP JUMP JUMPDEST PUSH1 0x0 DUP2 CALLDATALOAD SWAP1 POP PUSH2 0x931 DUP2 PUSH2 0x1353 JUMP JUMPDEST SWAP3 SWAP2 POP POP JUMP JUMPDEST PUSH1 0x0 DUP2 MLOAD SWAP1 POP PUSH2 0x946 DUP2 PUSH2 0x136A JUMP JUMPDEST SWAP3 SWAP2 POP POP JUMP JUMPDEST PUSH1 0x0 DUP1 DUP4 PUSH1 0x1F DUP5 ADD SLT PUSH2 0x962 JUMPI PUSH2 0x961 PUSH2 0x117D JUMP JUMPDEST JUMPDEST DUP3 CALLDATALOAD SWAP1 POP PUSH8 0xFFFFFFFFFFFFFFFF DUP2 GT ISZERO PUSH2 0x97F JUMPI PUSH2 0x97E PUSH2 0x1178 JUMP JUMPDEST JUMPDEST PUSH1 0x20 DUP4 ADD SWAP2 POP DUP4 PUSH1 0x1 DUP3 MUL DUP4 ADD GT ISZERO PUSH2 0x99B JUMPI PUSH2 0x99A PUSH2 0x1182 JUMP JUMPDEST JUMPDEST SWAP3 POP SWAP3 SWAP1 POP JUMP JUMPDEST PUSH1 0x0 DUP2 CALLDATALOAD SWAP1 POP PUSH2 0x9B1 DUP2 PUSH2 0x1381 JUMP JUMPDEST SWAP3 SWAP2 POP POP JUMP JUMPDEST PUSH1 0x0 PUSH1 0x20 DUP3 DUP5 SUB SLT ISZERO PUSH2 0x9CD JUMPI PUSH2 0x9CC PUSH2 0x118C JUMP JUMPDEST JUMPDEST PUSH1 0x0 PUSH2 0x9DB DUP5 DUP3 DUP6 ADD PUSH2 0x90D JUMP JUMPDEST SWAP2 POP POP SWAP3 SWAP2 POP POP JUMP JUMPDEST PUSH1 0x0 DUP1 PUSH1 0x40 DUP4 DUP6 SUB SLT ISZERO PUSH2 0x9FB JUMPI PUSH2 0x9FA PUSH2 0x118C JUMP JUMPDEST JUMPDEST PUSH1 0x0 PUSH2 0xA09 DUP6 DUP3 DUP7 ADD PUSH2 0x922 JUMP JUMPDEST SWAP3 POP POP PUSH1 0x20 PUSH2 0xA1A DUP6 DUP3 DUP7 ADD PUSH2 0x9A2 JUMP JUMPDEST SWAP2 POP POP SWAP3 POP SWAP3 SWAP1 POP JUMP JUMPDEST PUSH1 0x0 DUP1 PUSH1 0x40 DUP4 DUP6 SUB SLT ISZERO PUSH2 0xA3B JUMPI PUSH2 0xA3A PUSH2 0x118C JUMP JUMPDEST JUMPDEST PUSH1 0x0 PUSH2 0xA49 DUP6 DUP3 DUP7 ADD PUSH2 0x8F8 JUMP JUMPDEST SWAP3 POP POP PUSH1 0x20 PUSH2 0xA5A DUP6 DUP3 DUP7 ADD PUSH2 0x9A2 JUMP JUMPDEST SWAP2 POP POP SWAP3 POP SWAP3 SWAP1 POP JUMP JUMPDEST PUSH1 0x0 DUP1 PUSH1 0x0 DUP1 PUSH1 0x0 PUSH1 0x80 DUP7 DUP9 SUB SLT ISZERO PUSH2 0xA80 JUMPI PUSH2 0xA7F PUSH2 0x118C JUMP JUMPDEST JUMPDEST PUSH1 0x0 PUSH2 0xA8E DUP9 DUP3 DUP10 ADD PUSH2 0x8F8 JUMP JUMPDEST SWAP6 POP POP PUSH1 0x20 PUSH2 0xA9F DUP9 DUP3 DUP10 ADD PUSH2 0x9A2 JUMP JUMPDEST SWAP5 POP POP PUSH1 0x40 PUSH2 0xAB0 DUP9 DUP3 DUP10 ADD PUSH2 0x9A2 JUMP JUMPDEST SWAP4 POP POP PUSH1 0x60 DUP7 ADD CALLDATALOAD PUSH8 0xFFFFFFFFFFFFFFFF DUP2 GT ISZERO PUSH2 0xAD1 JUMPI PUSH2 0xAD0 PUSH2 0x1187 JUMP JUMPDEST JUMPDEST PUSH2 0xADD DUP9 DUP3 DUP10 ADD PUSH2 0x94C JUMP JUMPDEST SWAP3 POP SWAP3 POP POP SWAP3 SWAP6 POP SWAP3 SWAP6 SWAP1 SWAP4 POP JUMP JUMPDEST PUSH1 0x0 PUSH1 0x20 DUP3 DUP5 SUB SLT ISZERO PUSH2 0xB02 JUMPI PUSH2 0xB01 PUSH2 0x118C JUMP JUMPDEST JUMPDEST PUSH1 0x0 PUSH2 0xB10 DUP5 DUP3 DUP6 ADD PUSH2 0x937 JUMP JUMPDEST SWAP2 POP POP SWAP3 SWAP2 POP POP JUMP JUMPDEST PUSH2 0xB22 DUP2 PUSH2 0x1057 JUMP JUMPDEST DUP3 MSTORE POP POP JUMP JUMPDEST PUSH1 0x0 PUSH2 0xB33 DUP3 PUSH2 0xF49 JUMP JUMPDEST PUSH2 0xB3D DUP2 DUP6 PUSH2 0xF54 JUMP JUMPDEST SWAP4 POP PUSH2 0xB4D DUP2 DUP6 PUSH1 0x20 DUP7 ADD PUSH2 0x10E7 JUMP JUMPDEST PUSH2 0xB56 DUP2 PUSH2 0x1191 JUMP JUMPDEST DUP5 ADD SWAP2 POP POP SWAP3 SWAP2 POP POP JUMP JUMPDEST PUSH2 0xB6A DUP2 PUSH2 0x10B1 JUMP JUMPDEST DUP3 MSTORE POP POP JUMP JUMPDEST PUSH2 0xB79 DUP2 PUSH2 0x10C3 JUMP JUMPDEST DUP3 MSTORE POP POP JUMP JUMPDEST PUSH2 0xB88 DUP2 PUSH2 0x10D5 JUMP JUMPDEST DUP3 MSTORE POP POP JUMP JUMPDEST PUSH1 0x0 PUSH2 0xB9B PUSH1 0x4 DUP4 PUSH2 0xF65 JUMP JUMPDEST SWAP2 POP PUSH2 0xBA6 DUP3 PUSH2 0x11A2 JUMP JUMPDEST PUSH1 0x20 DUP3 ADD SWAP1 POP SWAP2 SWAP1 POP JUMP JUMPDEST PUSH1 0x0 PUSH2 0xBBE PUSH1 0x5 DUP4 PUSH2 0xF65 JUMP JUMPDEST SWAP2 POP PUSH2 0xBC9 DUP3 PUSH2 0x11CB JUMP JUMPDEST PUSH1 0x20 DUP3 ADD SWAP1 POP SWAP2 SWAP1 POP JUMP JUMPDEST PUSH1 0x0 PUSH2 0xBE1 PUSH1 0x5 DUP4 PUSH2 0xF65 JUMP JUMPDEST SWAP2 POP PUSH2 0xBEC DUP3 PUSH2 0x11F4 JUMP JUMPDEST PUSH1 0x20 DUP3 ADD SWAP1 POP SWAP2 SWAP1 POP JUMP JUMPDEST PUSH1 0x0 PUSH2 0xC04 PUSH1 0x3 DUP4 PUSH2 0xF65 JUMP JUMPDEST SWAP2 POP PUSH2 0xC0F DUP3 PUSH2 0x121D JUMP JUMPDEST PUSH1 0x20 DUP3 ADD SWAP1 POP SWAP2 SWAP1 POP JUMP JUMPDEST PUSH1 0x0 PUSH2 0xC27 PUSH1 0xF DUP4 PUSH2 0xF65 JUMP JUMPDEST SWAP2 POP PUSH2 0xC32 DUP3 PUSH2 0x1246 JUMP JUMPDEST PUSH1 0x20 DUP3 ADD SWAP1 POP SWAP2 SWAP1 POP JUMP JUMPDEST PUSH1 0x0 PUSH2 0xC4A PUSH1 0x6 DUP4 PUSH2 0xF65 JUMP JUMPDEST SWAP2 POP PUSH2 0xC55 DUP3 PUSH2 0x126F JUMP JUMPDEST PUSH1 0x20 DUP3 ADD SWAP1 POP SWAP2 SWAP1 POP JUMP JUMPDEST PUSH1 0x0 PUSH2 0xC6D PUSH1 0x4 DUP4 PUSH2 0xF65 JUMP JUMPDEST SWAP2 POP PUSH2 0xC78 DUP3 PUSH2 0x1298 JUMP JUMPDEST PUSH1 0x20 DUP3 ADD SWAP1 POP SWAP2 SWAP1 POP JUMP JUMPDEST PUSH1 0x0 PUSH2 0xC90 PUSH1 0x7 DUP4 PUSH2 0xF65 JUMP JUMPDEST SWAP2 POP PUSH2 0xC9B DUP3 PUSH2 0x12C1 JUMP JUMPDEST PUSH1 0x20 DUP3 ADD SWAP1 POP SWAP2 SWAP1 POP JUMP JUMPDEST PUSH1 0x0 PUSH2 0xCB3 PUSH1 0x7 DUP4 PUSH2 0xF65 JUMP JUMPDEST SWAP2 POP PUSH2 0xCBE DUP3 PUSH2 0x12EA JUMP JUMPDEST PUSH1 0x20 DUP3 ADD SWAP1 POP SWAP2 SWAP1 POP JUMP JUMPDEST PUSH1 0x0 PUSH2 0xCD6 PUSH1 0x7 DUP4 PUSH2 0xF65 JUMP JUMPDEST SWAP2 POP PUSH2 0xCE1 DUP3 PUSH2 0x1313 JUMP JUMPDEST PUSH1 0x20 DUP3 ADD SWAP1 POP SWAP2 SWAP1 POP JUMP JUMPDEST PUSH2 0xCF5 DUP2 PUSH2 0x10A7 JUMP JUMPDEST DUP3 MSTORE POP POP JUMP JUMPDEST PUSH1 0x0 PUSH1 0x40 DUP3 ADD SWAP1 POP PUSH2 0xD10 PUSH1 0x0 DUP4 ADD DUP6 PUSH2 0xB19 JUMP JUMPDEST PUSH2 0xD1D PUSH1 0x20 DUP4 ADD DUP5 PUSH2 0xB19 JUMP JUMPDEST SWAP4 SWAP3 POP POP POP JUMP JUMPDEST PUSH1 0x0 PUSH1 0x40 DUP3 ADD SWAP1 POP PUSH2 0xD39 PUSH1 0x0 DUP4 ADD DUP6 PUSH2 0xB19 JUMP JUMPDEST PUSH2 0xD46 PUSH1 0x20 DUP4 ADD DUP5 PUSH2 0xCEC JUMP JUMPDEST SWAP4 SWAP3 POP POP POP JUMP JUMPDEST PUSH1 0x0 PUSH1 0x40 DUP3 ADD SWAP1 POP DUP2 DUP2 SUB PUSH1 0x0 DUP4 ADD MSTORE PUSH2 0xD66 DUP2 PUSH2 0xB8E JUMP JUMPDEST SWAP1 POP PUSH2 0xD75 PUSH1 0x20 DUP4 ADD DUP5 PUSH2 0xB7F JUMP JUMPDEST SWAP3 SWAP2 POP POP JUMP JUMPDEST PUSH1 0x0 PUSH1 0x40 DUP3 ADD SWAP1 POP DUP2 DUP2 SUB PUSH1 0x0 DUP4 ADD MSTORE PUSH2 0xD94 DUP2 PUSH2 0xBB1 JUMP JUMPDEST SWAP1 POP PUSH2 0xDA3 PUSH1 0x20 DUP4 ADD DUP5 PUSH2 0xB70 JUMP JUMPDEST SWAP3 SWAP2 POP POP JUMP JUMPDEST PUSH1 0x0 PUSH1 0x20 DUP3 ADD SWAP1 POP DUP2 DUP2 SUB PUSH1 0x0 DUP4 ADD MSTORE PUSH2 0xDC2 DUP2 PUSH2 0xBD4 JUMP JUMPDEST SWAP1 POP SWAP2 SWAP1 POP JUMP JUMPDEST PUSH1 0x0 PUSH1 0x40 DUP3 ADD SWAP1 POP DUP2 DUP2 SUB PUSH1 0x0 DUP4 ADD MSTORE PUSH2 0xDE2 DUP2 PUSH2 0xBF7 JUMP JUMPDEST SWAP1 POP PUSH2 0xDF1 PUSH1 0x20 DUP4 ADD DUP5 PUSH2 0xCEC JUMP JUMPDEST SWAP3 SWAP2 POP POP JUMP JUMPDEST PUSH1 0x0 PUSH1 0x40 DUP3 ADD SWAP1 POP DUP2 DUP2 SUB PUSH1 0x0 DUP4 ADD MSTORE PUSH2 0xE10 DUP2 PUSH2 0xC1A JUMP JUMPDEST SWAP1 POP PUSH2 0xE1F PUSH1 0x20 DUP4 ADD DUP5 PUSH2 0xCEC JUMP JUMPDEST SWAP3 SWAP2 POP POP JUMP JUMPDEST PUSH1 0x0 PUSH1 0x40 DUP3 ADD SWAP1 POP DUP2 DUP2 SUB PUSH1 0x0 DUP4 ADD MSTORE PUSH2 0xE3E DUP2 PUSH2 0xC3D JUMP JUMPDEST SWAP1 POP PUSH2 0xE4D PUSH1 0x20 DUP4 ADD DUP5 PUSH2 0xCEC JUMP JUMPDEST SWAP3 SWAP2 POP POP JUMP JUMPDEST PUSH1 0x0 PUSH1 0x40 DUP3 ADD SWAP1 POP DUP2 DUP2 SUB PUSH1 0x0 DUP4 ADD MSTORE PUSH2 0xE6C DUP2 PUSH2 0xC60 JUMP JUMPDEST SWAP1 POP PUSH2 0xE7B PUSH1 0x20 DUP4 ADD DUP5 PUSH2 0xB61 JUMP JUMPDEST SWAP3 SWAP2 POP POP JUMP JUMPDEST PUSH1 0x0 PUSH1 0x40 DUP3 ADD SWAP1 POP DUP2 DUP2 SUB PUSH1 0x0 DUP4 ADD MSTORE PUSH2 0xE9A DUP2 PUSH2 0xC83 JUMP JUMPDEST SWAP1 POP PUSH2 0xEA9 PUSH1 0x20 DUP4 ADD DUP5 PUSH2 0xCEC JUMP JUMPDEST SWAP3 SWAP2 POP POP JUMP JUMPDEST PUSH1 0x0 PUSH1 0x20 DUP3 ADD SWAP1 POP DUP2 DUP2 SUB PUSH1 0x0 DUP4 ADD MSTORE PUSH2 0xEC8 DUP2 PUSH2 0xCA6 JUMP JUMPDEST SWAP1 POP SWAP2 SWAP1 POP JUMP JUMPDEST PUSH1 0x0 PUSH1 0x40 DUP3 ADD SWAP1 POP DUP2 DUP2 SUB PUSH1 0x0 DUP4 ADD MSTORE PUSH2 0xEE8 DUP2 PUSH2 0xCC9 JUMP JUMPDEST SWAP1 POP PUSH2 0xEF7 PUSH1 0x20 DUP4 ADD DUP5 PUSH2 0xCEC JUMP JUMPDEST SWAP3 SWAP2 POP POP JUMP JUMPDEST PUSH1 0x0 PUSH1 0x80 DUP3 ADD SWAP1 POP PUSH2 0xF12 PUSH1 0x0 DUP4 ADD DUP8 PUSH2 0xCEC JUMP JUMPDEST PUSH2 0xF1F PUSH1 0x20 DUP4 ADD DUP7 PUSH2 0xCEC JUMP JUMPDEST PUSH2 0xF2C PUSH1 0x40 DUP4 ADD DUP6 PUSH2 0xB19 JUMP JUMPDEST DUP2 DUP2 SUB PUSH1 0x60 DUP4 ADD MSTORE PUSH2 0xF3E DUP2 DUP5 PUSH2 0xB28 JUMP JUMPDEST SWAP1 POP SWAP6 SWAP5 POP POP POP POP POP JUMP JUMPDEST PUSH1 0x0 DUP2 MLOAD SWAP1 POP SWAP2 SWAP1 POP JUMP JUMPDEST PUSH1 0x0 DUP3 DUP3 MSTORE PUSH1 0x20 DUP3 ADD SWAP1 POP SWAP3 SWAP2 POP POP JUMP JUMPDEST PUSH1 0x0 DUP3 DUP3 MSTORE PUSH1 0x20 DUP3 ADD SWAP1 POP SWAP3 SWAP2 POP POP JUMP JUMPDEST PUSH1 0x0 PUSH2 0xF81 DUP3 PUSH2 0x10A7 JUMP JUMPDEST SWAP2 POP PUSH2 0xF8C DUP4 PUSH2 0x10A7 JUMP JUMPDEST SWAP3 POP DUP3 PUSH32 0xFFFFFFFFFFFFFFFFFFFFFFFFFFFFFFFFFFFFFFFFFFFFFFFFFFFFFFFFFFFFFFFF SUB DUP3 GT ISZERO PUSH2 0xFC1 JUMPI PUSH2 0xFC0 PUSH2 0x111A JUMP JUMPDEST JUMPDEST DUP3 DUP3 ADD SWAP1 POP SWAP3 SWAP2 POP POP JUMP JUMPDEST PUSH1 0x0 PUSH2 0xFD7 DUP3 PUSH2 0x10A7 JUMP JUMPDEST SWAP2 POP PUSH2 0xFE2 DUP4 PUSH2 0x10A7 JUMP JUMPDEST SWAP3 POP DUP3 PUSH2 0xFF2 JUMPI PUSH2 0xFF1 PUSH2 0x1149 JUMP JUMPDEST JUMPDEST DUP3 DUP3 DIV SWAP1 POP SWAP3 SWAP2 POP POP JUMP JUMPDEST PUSH1 0x0 PUSH2 0x1008 DUP3 PUSH2 0x10A7 JUMP JUMPDEST SWAP2 POP PUSH2 0x1013 DUP4 PUSH2 0x10A7 JUMP JUMPDEST SWAP3 POP DUP2 PUSH32 0xFFFFFFFFFFFFFFFFFFFFFFFFFFFFFFFFFFFFFFFFFFFFFFFFFFFFFFFFFFFFFFFF DIV DUP4 GT DUP3 ISZERO ISZERO AND ISZERO PUSH2 0x104C JUMPI PUSH2 0x104B PUSH2 0x111A JUMP JUMPDEST JUMPDEST DUP3 DUP3 MUL SWAP1 POP SWAP3 SWAP2 POP POP JUMP JUMPDEST PUSH1 0x0 PUSH2 0x1062 DUP3 PUSH2 0x1087 JUMP JUMPDEST SWAP1 POP SWAP2 SWAP1 POP JUMP JUMPDEST PUSH1 0x0 PUSH2 0x1074 DUP3 PUSH2 0x1087 JUMP JUMPDEST SWAP1 POP SWAP2 SWAP1 POP JUMP JUMPDEST PUSH1 0x0 DUP2 ISZERO ISZERO SWAP1 POP SWAP2 SWAP1 POP JUMP JUMPDEST PUSH1 0x0 PUSH20 0xFFFFFFFFFFFFFFFFFFFFFFFFFFFFFFFFFFFFFFFF DUP3 AND SWAP1 POP SWAP2 SWAP1 POP JUMP JUMPDEST PUSH1 0x0 DUP2 SWAP1 POP SWAP2 SWAP1 POP JUMP JUMPDEST PUSH1 0x0 PUSH2 0x10BC DUP3 PUSH2 0x10A7 JUMP JUMPDEST SWAP1 POP SWAP2 SWAP1 POP JUMP JUMPDEST PUSH1 0x0 PUSH2 0x10CE DUP3 PUSH2 0x10A7 JUMP JUMPDEST SWAP1 POP SWAP2 SWAP1 POP JUMP JUMPDEST PUSH1 0x0 PUSH2 0x10E0 DUP3 PUSH2 0x10A7 JUMP JUMPDEST SWAP1 POP SWAP2 SWAP1 POP JUMP JUMPDEST PUSH1 0x0 JUMPDEST DUP4 DUP2 LT ISZERO PUSH2 0x1105 JUMPI DUP1 DUP3 ADD MLOAD DUP2 DUP5 ADD MSTORE PUSH1 0x20 DUP2 ADD SWAP1 POP PUSH2 0x10EA JUMP JUMPDEST DUP4 DUP2 GT ISZERO PUSH2 0x1114 JUMPI PUSH1 0x0 DUP5 DUP5 ADD MSTORE JUMPDEST POP POP POP POP JUMP JUMPDEST PUSH32 0x4E487B7100000000000000000000000000000000000000000000000000000000 PUSH1 0x0 MSTORE PUSH1 0x11 PUSH1 0x4 MSTORE PUSH1 0x24 PUSH1 0x0 REVERT JUMPDEST PUSH32 0x4E487B7100000000000000000000000000000000000000000000000000000000 PUSH1 0x0 MSTORE PUSH1 0x12 PUSH1 0x4 MSTORE PUSH1 0x24 PUSH1 0x0 REVERT JUMPDEST PUSH1 0x0 DUP1 REVERT JUMPDEST PUSH1 0x0 DUP1 REVERT JUMPDEST PUSH1 0x0 DUP1 REVERT JUMPDEST PUSH1 0x0 DUP1 REVERT JUMPDEST PUSH1 0x0 DUP1 REVERT JUMPDEST PUSH1 0x0 PUSH1 0x1F NOT PUSH1 0x1F DUP4 ADD AND SWAP1 POP SWAP2 SWAP1 POP JUMP JUMPDEST PUSH32 0x6173646600000000000000000000000000000000000000000000000000000000 PUSH1 0x0 DUP3 ADD MSTORE POP JUMP JUMPDEST PUSH32 0x7465737432000000000000000000000000000000000000000000000000000000 PUSH1 0x0 DUP3 ADD MSTORE POP JUMP JUMPDEST PUSH32 0x2170616972000000000000000000000000000000000000000000000000000000 PUSH1 0x0 DUP3 ADD MSTORE POP JUMP JUMPDEST PUSH32 0x6665650000000000000000000000000000000000000000000000000000000000 PUSH1 0x0 DUP3 ADD MSTORE POP JUMP JUMPDEST PUSH32 0x616D6F756E7420746F2072657061790000000000000000000000000000000000 PUSH1 0x0 DUP3 ADD MSTORE POP JUMP JUMPDEST PUSH32 0x616D6F756E740000000000000000000000000000000000000000000000000000 PUSH1 0x0 DUP3 ADD MSTORE POP JUMP JUMPDEST PUSH32 0x7465737400000000000000000000000000000000000000000000000000000000 PUSH1 0x0 DUP3 ADD MSTORE POP JUMP JUMPDEST PUSH32 0x616D6F756E743100000000000000000000000000000000000000000000000000 PUSH1 0x0 DUP3 ADD MSTORE POP JUMP JUMPDEST PUSH32 0x2173656E64657200000000000000000000000000000000000000000000000000 PUSH1 0x0 DUP3 ADD MSTORE POP JUMP JUMPDEST PUSH32 0x616D6F756E743000000000000000000000000000000000000000000000000000 PUSH1 0x0 DUP3 ADD MSTORE POP JUMP JUMPDEST PUSH2 0x1345 DUP2 PUSH2 0x1057 JUMP JUMPDEST DUP2 EQ PUSH2 0x1350 JUMPI PUSH1 0x0 DUP1 REVERT JUMPDEST POP JUMP JUMPDEST PUSH2 0x135C DUP2 PUSH2 0x1069 JUMP JUMPDEST DUP2 EQ PUSH2 0x1367 JUMPI PUSH1 0x0 DUP1 REVERT JUMPDEST POP JUMP JUMPDEST PUSH2 0x1373 DUP2 PUSH2 0x107B JUMP JUMPDEST DUP2 EQ PUSH2 0x137E JUMPI PUSH1 0x0 DUP1 REVERT JUMPDEST POP JUMP JUMPDEST PUSH2 0x138A DUP2 PUSH2 0x10A7 JUMP JUMPDEST DUP2 EQ PUSH2 0x1395 JUMPI PUSH1 0x0 DUP1 REVERT JUMPDEST POP JUMP INVALID LOG2 PUSH5 0x6970667358 0x22 SLT KECCAK256 0xCE DUP11 PC PUSH29 0xE65E2E502D8B3EA5665DC3A336A8EEBE55FF4AC0F7E87EDD053DBDDF64 PUSH20 0x6F6C634300080700330000000000000000000000 "
		},
		"gasEstimates": {
			"creation": {
				"codeDepositCost": "1014000",
				"executionCost": "1054",
				"totalCost": "1015054"
			},
			"external": {
				"": "107",
				"pancakeCall(address,uint256,uint256,bytes)": "infinite",
				"testFlashSwap(address,uint256)": "infinite"
			}
		},
		"methodIdentifiers": {
			"pancakeCall(address,uint256,uint256,bytes)": "84800812",
			"testFlashSwap(address,uint256)": "293ccb50"
		}
	},
	"abi": [
		{
			"anonymous": false,
			"inputs": [
				{
					"indexed": false,
					"internalType": "string",
					"name": "message",
					"type": "string"
				},
				{
					"indexed": false,
					"internalType": "uint256",
					"name": "val",
					"type": "uint256"
				}
			],
			"name": "Log",
			"type": "event"
		},
		{
			"stateMutability": "payable",
			"type": "fallback"
		},
		{
			"inputs": [
				{
					"internalType": "address",
					"name": "_sender",
					"type": "address"
				},
				{
					"internalType": "uint256",
					"name": "_amount0",
					"type": "uint256"
				},
				{
					"internalType": "uint256",
					"name": "_amount1",
					"type": "uint256"
				},
				{
					"internalType": "bytes",
					"name": "_data",
					"type": "bytes"
				}
			],
			"name": "pancakeCall",
			"outputs": [],
			"stateMutability": "nonpayable",
			"type": "function"
		},
		{
			"inputs": [
				{
					"internalType": "address",
					"name": "_tokenBorrow",
					"type": "address"
				},
				{
					"internalType": "uint256",
					"name": "_amount",
					"type": "uint256"
				}
			],
			"name": "testFlashSwap",
			"outputs": [],
			"stateMutability": "nonpayable",
			"type": "function"
		}
	]
}