{
  "contractName": "TestSwapContract",
  "abi": [
    {
      "inputs": [],
      "stateMutability": "nonpayable",
      "type": "constructor"
    },
    {
      "anonymous": false,
      "inputs": [
        {
          "indexed": false,
          "internalType": "string",
          "name": "message",
          "type": "string"
        },
        {
          "indexed": false,
          "internalType": "uint256",
          "name": "value",
          "type": "uint256"
        }
      ],
      "name": "Log",
      "type": "event"
    },
    {
      "anonymous": false,
      "inputs": [
        {
          "indexed": false,
          "internalType": "address",
          "name": "test",
          "type": "address"
        }
      ],
      "name": "Test",
      "type": "event"
    },
    {
      "inputs": [
        {
          "internalType": "address",
          "name": "_token0",
          "type": "address"
        },
        {
          "internalType": "address",
          "name": "_token1",
          "type": "address"
        },
        {
          "internalType": "uint256",
          "name": "_amount",
          "type": "uint256"
        },
        {
          "internalType": "string[]",
          "name": "_providerPath",
          "type": "string[]"
        }
      ],
      "name": "execute",
      "outputs": [],
      "stateMutability": "payable",
      "type": "function",
      "payable": true
    },
    {
      "inputs": [
        {
          "internalType": "address",
          "name": "_sender",
          "type": "address"
        },
        {
          "internalType": "uint256",
          "name": "_amount0",
          "type": "uint256"
        },
        {
          "internalType": "uint256",
          "name": "_amount1",
          "type": "uint256"
        },
        {
          "internalType": "bytes",
          "name": "_data",
          "type": "bytes"
        }
      ],
      "name": "pancakeCall2",
      "outputs": [],
      "stateMutability": "nonpayable",
      "type": "function"
    },
    {
      "inputs": [
        {
          "internalType": "address",
          "name": "sender",
          "type": "address"
        },
        {
          "internalType": "uint256",
          "name": "amount0",
          "type": "uint256"
        },
        {
          "internalType": "uint256",
          "name": "amount1",
          "type": "uint256"
        },
        {
          "internalType": "bytes",
          "name": "data",
          "type": "bytes"
        }
      ],
      "name": "pancakeCall",
      "outputs": [],
      "stateMutability": "nonpayable",
      "type": "function"
    }
  ],
  "bytecode": "0x60e06040523480156200001157600080fd5b50600073ca143ce32fe78f1f7019d7d551a6402fc5350c73905060007310ed43c718714eb63d5aa57b78b54704e256024e90508173ffffffffffffffffffffffffffffffffffffffff1660808173ffffffffffffffffffffffffffffffffffffffff1660601b815250508073ffffffffffffffffffffffffffffffffffffffff1660a08173ffffffffffffffffffffffffffffffffffffffff1660601b815250508073ffffffffffffffffffffffffffffffffffffffff1663ad5c46486040518163ffffffff1660e01b815260040160206040518083038186803b158015620000f957600080fd5b505afa1580156200010e573d6000803e3d6000fd5b505050506040513d601f19601f8201168201806040525081019062000134919062000189565b73ffffffffffffffffffffffffffffffffffffffff1660c08173ffffffffffffffffffffffffffffffffffffffff1660601b8152505050506200020e565b6000815190506200018381620001f4565b92915050565b600060208284031215620001a257620001a1620001ef565b5b6000620001b28482850162000172565b91505092915050565b6000620001c882620001cf565b9050919050565b600073ffffffffffffffffffffffffffffffffffffffff82169050919050565b600080fd5b620001ff81620001bb565b81146200020b57600080fd5b50565b60805160601c60a05160601c60c05160601c61114e620002506000396000818160a9015260fe0152600050506000818161018f01526104ff015261114e6000f3fe6080604052600436106100345760003560e01c806370e98fb9146100395780638480081214610055578063a4250e081461007e575b600080fd5b610053600480360381019061004e91906109ec565b6100a7565b005b34801561006157600080fd5b5061007c60048036038101906100779190610a6f565b6104d2565b005b34801561008a57600080fd5b506100a560048036038101906100a09190610af7565b6104d9565b005b7f000000000000000000000000000000000000000000000000000000000000000073ffffffffffffffffffffffffffffffffffffffff168473ffffffffffffffffffffffffffffffffffffffff16148061014c57507f000000000000000000000000000000000000000000000000000000000000000073ffffffffffffffffffffffffffffffffffffffff168373ffffffffffffffffffffffffffffffffffffffff16145b61018b576040517f08c379a000000000000000000000000000000000000000000000000000000000815260040161018290610da9565b60405180910390fd5b60007f000000000000000000000000000000000000000000000000000000000000000073ffffffffffffffffffffffffffffffffffffffff1663e6a4390586866040518363ffffffff1660e01b81526004016101e8929190610ce6565b60206040518083038186803b15801561020057600080fd5b505afa158015610214573d6000803e3d6000fd5b505050506040513d601f19601f82011682018060405250810190610238919061093c565b9050600073ffffffffffffffffffffffffffffffffffffffff168173ffffffffffffffffffffffffffffffffffffffff1614156102aa576040517f08c379a00000000000000000000000000000000000000000000000000000000081526004016102a190610d5b565b60405180910390fd5b60008173ffffffffffffffffffffffffffffffffffffffff16630dfe16816040518163ffffffff1660e01b815260040160206040518083038186803b1580156102f257600080fd5b505afa158015610306573d6000803e3d6000fd5b505050506040513d601f19601f8201168201806040525081019061032a919061093c565b73ffffffffffffffffffffffffffffffffffffffff168673ffffffffffffffffffffffffffffffffffffffff1614610363576000610365565b835b905060008273ffffffffffffffffffffffffffffffffffffffff1663d21220a76040518163ffffffff1660e01b815260040160206040518083038186803b1580156103af57600080fd5b505afa1580156103c3573d6000803e3d6000fd5b505050506040513d601f19601f820116820180604052508101906103e7919061093c565b73ffffffffffffffffffffffffffffffffffffffff168773ffffffffffffffffffffffffffffffffffffffff1614610420576000610422565b845b90507fdd970dd9b5bfe707922155b058a407655cb18288b807e2216442bca8ad83d6b5826040516104539190610d7b565b60405180910390a17fdd970dd9b5bfe707922155b058a407655cb18288b807e2216442bca8ad83d6b58160405161048a9190610dc9565b60405180910390a16000878787876040516020016104ab9493929190610d0f565b60405160208183030381529060405290506104c8308484846104d9565b5050505050505050565b5050505050565b600080600080848060200190518101906104f39190610969565b935093509350935060007f000000000000000000000000000000000000000000000000000000000000000073ffffffffffffffffffffffffffffffffffffffff1663e6a4390586866040518363ffffffff1660e01b8152600401610558929190610ce6565b60206040518083038186803b15801561057057600080fd5b505afa158015610584573d6000803e3d6000fd5b505050506040513d601f19601f820116820180604052508101906105a8919061093c565b9050505050505050505050565b60006105c86105c384610e1c565b610df7565b905080838252602082019050828560208602820111156105eb576105ea61100a565b5b60005b8581101561063957813567ffffffffffffffff81111561061157610610611005565b5b80860161061e89826108b6565b855260208501945060208401935050506001810190506105ee565b5050509392505050565b600061065661065184610e1c565b610df7565b905080838252602082019050828560208602820111156106795761067861100a565b5b60005b858110156106c757815167ffffffffffffffff81111561069f5761069e611005565b5b8086016106ac89826108e4565b8552602085019450602084019350505060018101905061067c565b5050509392505050565b60006106e46106df84610e48565b610df7565b905082815260208101848484011115610700576106ff61100f565b5b61070b848285610f5e565b509392505050565b600061072661072184610e79565b610df7565b9050828152602081018484840111156107425761074161100f565b5b61074d848285610f5e565b509392505050565b600061076861076384610e79565b610df7565b9050828152602081018484840111156107845761078361100f565b5b61078f848285610f6d565b509392505050565b6000813590506107a6816110d3565b92915050565b6000815190506107bb816110d3565b92915050565b6000815190506107d0816110ea565b92915050565b600082601f8301126107eb576107ea611005565b5b81356107fb8482602086016105b5565b91505092915050565b600082601f83011261081957610818611005565b5b8151610829848260208601610643565b91505092915050565b60008083601f84011261084857610847611005565b5b8235905067ffffffffffffffff81111561086557610864611000565b5b6020830191508360018202830111156108815761088061100a565b5b9250929050565b600082601f83011261089d5761089c611005565b5b81356108ad8482602086016106d1565b91505092915050565b600082601f8301126108cb576108ca611005565b5b81356108db848260208601610713565b91505092915050565b600082601f8301126108f9576108f8611005565b5b8151610909848260208601610755565b91505092915050565b60008135905061092181611101565b92915050565b60008151905061093681611101565b92915050565b60006020828403121561095257610951611019565b5b6000610960848285016107ac565b91505092915050565b6000806000806080858703121561098357610982611019565b5b6000610991878288016107c1565b94505060206109a2878288016107c1565b93505060406109b387828801610927565b925050606085015167ffffffffffffffff8111156109d4576109d3611014565b5b6109e087828801610804565b91505092959194509250565b60008060008060808587031215610a0657610a05611019565b5b6000610a1487828801610797565b9450506020610a2587828801610797565b9350506040610a3687828801610912565b925050606085013567ffffffffffffffff811115610a5757610a56611014565b5b610a63878288016107d6565b91505092959194509250565b600080600080600060808688031215610a8b57610a8a611019565b5b6000610a9988828901610797565b9550506020610aaa88828901610912565b9450506040610abb88828901610912565b935050606086013567ffffffffffffffff811115610adc57610adb611014565b5b610ae888828901610832565b92509250509295509295909350565b60008060008060808587031215610b1157610b10611019565b5b6000610b1f87828801610797565b9450506020610b3087828801610912565b9350506040610b4187828801610912565b925050606085013567ffffffffffffffff811115610b6257610b61611014565b5b610b6e87828801610888565b91505092959194509250565b6000610b868383610c12565b905092915050565b610b9781610f10565b82525050565b6000610ba882610eba565b610bb28185610edd565b935083602082028501610bc485610eaa565b8060005b85811015610c005784840389528151610be18582610b7a565b9450610bec83610ed0565b925060208a01995050600181019050610bc8565b50829750879550505050505092915050565b6000610c1d82610ec5565b610c278185610eee565b9350610c37818560208601610f6d565b610c408161101e565b840191505092915050565b6000610c58601383610eff565b9150610c638261102f565b602082019050919050565b6000610c7b600a83610eff565b9150610c8682611058565b602082019050919050565b6000610c9e601283610eff565b9150610ca982611081565b602082019050919050565b6000610cc1600a83610eff565b9150610ccc826110aa565b602082019050919050565b610ce081610f54565b82525050565b6000604082019050610cfb6000830185610b8e565b610d086020830184610b8e565b9392505050565b6000608082019050610d246000830187610b8e565b610d316020830186610b8e565b610d3e6040830185610cd7565b8181036060830152610d508184610b9d565b905095945050505050565b60006020820190508181036000830152610d7481610c4b565b9050919050565b60006040820190508181036000830152610d9481610c6e565b9050610da36020830184610cd7565b92915050565b60006020820190508181036000830152610dc281610c91565b9050919050565b60006040820190508181036000830152610de281610cb4565b9050610df16020830184610cd7565b92915050565b6000610e01610e12565b9050610e0d8282610fa0565b919050565b6000604051905090565b600067ffffffffffffffff821115610e3757610e36610fd1565b5b602082029050602081019050919050565b600067ffffffffffffffff821115610e6357610e62610fd1565b5b610e6c8261101e565b9050602081019050919050565b600067ffffffffffffffff821115610e9457610e93610fd1565b5b610e9d8261101e565b9050602081019050919050565b6000819050602082019050919050565b600081519050919050565b600081519050919050565b6000602082019050919050565b600082825260208201905092915050565b600082825260208201905092915050565b600082825260208201905092915050565b6000610f1b82610f34565b9050919050565b6000610f2d82610f34565b9050919050565b600073ffffffffffffffffffffffffffffffffffffffff82169050919050565b6000819050919050565b82818337600083830152505050565b60005b83811015610f8b578082015181840152602081019050610f70565b83811115610f9a576000848401525b50505050565b610fa98261101e565b810181811067ffffffffffffffff82111715610fc857610fc7610fd1565b5b80604052505050565b7f4e487b7100000000000000000000000000000000000000000000000000000000600052604160045260246000fd5b600080fd5b600080fd5b600080fd5b600080fd5b600080fd5b600080fd5b6000601f19601f8301169050919050565b7f5061697220646f6573206e6f7420657869737400000000000000000000000000600082015250565b7f616d6f756e74304f757400000000000000000000000000000000000000000000600082015250565b7f4e6f2045544820746f6b656e20676976656e0000000000000000000000000000600082015250565b7f616d6f756e74314f757400000000000000000000000000000000000000000000600082015250565b6110dc81610f10565b81146110e757600080fd5b50565b6110f381610f22565b81146110fe57600080fd5b50565b61110a81610f54565b811461111557600080fd5b5056fea264697066735822122019b79fc47fd6c8bf7fdcf6ab38c70927d84dd44089f2772c867ffc6520fef7b864736f6c63430008070033",
  "immutableReferences": {
    "53": [
      {
        "length": 32,
        "start": 399
      },
      {
        "length": 32,
        "start": 1279
      }
    ],
    "59": [
      {
        "length": 32,
        "start": 169
      },
      {
        "length": 32,
        "start": 254
      }
    ]
  },
  "source": "// SPDX-License-Identifier: UNLICENSED\r\n\r\nimport \"../dependencies/interfaces/IPancakeRouter02.sol\";\r\nimport \"../dependencies/interfaces/IPancakeFactory.sol\";\r\nimport \"../dependencies/interfaces/IPancakeCallee.sol\";\r\nimport \"../dependencies/interfaces/IPancakePair.sol\";\r\nimport \"../dependencies/interfaces/IERC20.sol\";\r\nimport \"../dependencies/interfaces/IWETH.sol\";\r\n\r\npragma solidity ^0.8.0;\r\n\r\ncontract TestSwapContract is IPancakeCallee {\r\n    IPancakeFactory immutable FACTORY;\r\n    IPancakeRouter02 immutable ROUTER;\r\n    IWETH immutable WETH;\r\n\r\n    constructor() {\r\n        address factory = 0xcA143Ce32Fe78f1f7019d7d551a6402fC5350c73;\r\n        address router = 0x10ED43C718714eb63d5aA57B78B54704E256024E;\r\n        FACTORY = IPancakeFactory(factory);\r\n        ROUTER = IPancakeRouter02(router);\r\n        WETH = IWETH(IPancakeRouter02(router).WETH());\r\n    }\r\n\r\n    event Test(address test);\r\n    event Log(string message, uint value);\r\n\r\n    //    function swap(address[] memory path, uint _amount0) public payable {\r\n    //        emit Log(\"amount\", _amount0);\r\n    //        IERC20(path[0]).transferFrom(msg.sender, address(this), _amount0);\r\n    //        IPancakeRouter02(ROUTER).swapExactTokensForTokens(_amount0, 0, path, address(this), block.timestamp);\r\n    //        emit Log(\"Swap Successful\", 42);\r\n    //        address pair = IPancakeFactory(FACTORY).getPair(_token0, _token1);\r\n    //        require(pair != address(0), \"Pair does not exist\");\r\n    //        uint amount0Out = _token0 == IPancakePair(pair).token0() ? _amount : 0;\r\n    //        uint amount1Out = _token0 == IPancakePair(pair).token1() ? _amount : 0;\r\n    //        IPancakePair(pair).swap(amount0Out, amount1Out, address(this), null);\r\n    //    }\r\n\r\n    function execute(address _token0, address _token1, uint _amount, string[] memory _providerPath) public payable {\r\n        require(_token0 == address(WETH) || _token1 == address(WETH), \"No ETH token given\");\r\n        address pair = FACTORY.getPair(_token0, _token1);\r\n        require(pair != address(0), \"Pair does not exist\");\r\n\r\n        uint amount0Out = _token0 == IPancakePair(pair).token0() ? _amount : 0;\r\n        uint amount1Out = _token0 == IPancakePair(pair).token1() ? _amount : 0;\r\n        emit Log(\"amount0Out\", amount0Out);\r\n        emit Log(\"amount1Out\", amount1Out);\r\n        bytes memory data = abi.encode(_token0, _token1, _amount, _providerPath);\r\n        pancakeCall2(address(this), amount0Out, amount1Out, data);\r\n        //IPancakePair(pair).swap(amount0Out, amount1Out, address(this), data);\r\n    }\r\n\r\n    function pancakeCall2(address _sender, uint _amount0, uint _amount1, bytes memory _data) public {\r\n        (address token0, address token1, uint amount, string[] memory providerPath) = abi.decode(_data, (address, address , uint, string[]));\r\n        address pair = FACTORY.getPair(token0, token1);\r\n\r\n        //require(pair == msg.sender, \"Function sender is not a pair\"); UNCOMMENT AFTERWARDS\r\n\r\n//        address token0 = IPancakePair(msg.sender).token0();\r\n//        address token1 = IPancakePair(msg.sender).token1();\r\n\r\n//        WETH.deposit{value: amountRequired}();\r\n//        assert(WETH.transfer(msg.sender, amountRequired)); // return WETH to V2 pair\r\n    }\r\n    function pancakeCall(address sender, uint amount0, uint amount1, bytes calldata data) external override {\r\n\r\n    }\r\n}\r\n",
  "sourcePath": "C:\\Users\\Micha\\Desktop\\Programming Stuff\\Git\\solidity\\box\\contracts\\testSwap.sol",
  "compiler": {
    "name": "solc",
    "version": "0.8.7+commit.e28d00a7.Emscripten.clang"
  },
  "schemaVersion": "3.4.3",
  "updatedAt": "2021-09-17T18:20:13.192Z",
  "networkType": "ethereum",
  "devdoc": {
    "kind": "dev",
    "methods": {},
    "version": 1
  },
  "userdoc": {
    "kind": "user",
    "methods": {},
    "version": 1
  }
}