{
  "contractName": "TestSwapContract",
  "abi": [
    {
      "anonymous": false,
      "inputs": [
        {
          "indexed": false,
          "internalType": "string",
          "name": "message",
          "type": "string"
        },
        {
          "indexed": false,
          "internalType": "uint256",
          "name": "value",
          "type": "uint256"
        }
      ],
      "name": "Log",
      "type": "event"
    },
    {
      "constant": false,
      "inputs": [
        {
          "internalType": "uint256",
          "name": "_data",
          "type": "uint256"
        }
      ],
      "name": "set",
      "outputs": [],
      "payable": true,
      "stateMutability": "payable",
      "type": "function"
    },
    {
      "constant": true,
      "inputs": [],
      "name": "get",
      "outputs": [
        {
          "internalType": "uint256",
          "name": "",
          "type": "uint256"
        }
      ],
      "payable": false,
      "stateMutability": "view",
      "type": "function"
    },
    {
      "constant": false,
      "inputs": [
        {
          "internalType": "string",
          "name": "something",
          "type": "string"
        }
      ],
      "name": "swap",
      "outputs": [],
      "payable": false,
      "stateMutability": "nonpayable",
      "type": "function"
    }
  ],
  "bytecode": "0x60806040526000805534801561001457600080fd5b5061039e806100246000396000f3fe6080604052600436106100345760003560e01c806360fe47b1146100395780636d4ce63c1461006757806378d410e614610092575b600080fd5b6100656004803603602081101561004f57600080fd5b810190808035906020019092919050505061015a565b005b34801561007357600080fd5b5061007c6101d6565b6040518082815260200191505060405180910390f35b34801561009e57600080fd5b50610158600480360360208110156100b557600080fd5b81019080803590602001906401000000008111156100d257600080fd5b8201836020820111156100e457600080fd5b8035906020019184600183028401116401000000008311171561010657600080fd5b91908080601f016020809104026020016040519081016040528093929190818152602001838380828437600081840152601f19601f8201169050808301925050505050505091929192905050506101df565b005b806000819055507fdd970dd9b5bfe707922155b058a407655cb18288b807e2216442bca8ad83d6b560005460405180806020018381526020018281038252600a8152602001807f56616c7565207365743a000000000000000000000000000000000000000000008152506020019250505060405180910390a150565b60008054905090565b7fdd970dd9b5bfe707922155b058a407655cb18288b807e2216442bca8ad83d6b5600160405180806020018381526020018281038252600a8152602001807f616d6f756e74304f7574000000000000000000000000000000000000000000008152506020019250505060405180910390a17fdd970dd9b5bfe707922155b058a407655cb18288b807e2216442bca8ad83d6b5600260405180806020018381526020018281038252600a8152602001807f616d6f756e74314f7574000000000000000000000000000000000000000000008152506020019250505060405180910390a17fdd970dd9b5bfe707922155b058a407655cb18288b807e2216442bca8ad83d6b58160036040518080602001838152602001828103825284818151815260200191508051906020019080838360005b8381101561032b578082015181840152602081019050610310565b50505050905090810190601f1680156103585780820380516001836020036101000a031916815260200191505b50935050505060405180910390a15056fea265627a7a72315820e1713446f45b49d16381f7ff3d6d9c570a91bc612abd22115b638a3d0fbcf35a64736f6c63430005110032",
  "source": "// SPDX-License-Identifier: UNLICENSED\r\n\r\npragma solidity ^0.5.0;\r\n\r\n//import \"./interfaces/IPancakeFactory.sol\";\r\n//import \"./interfaces/IPancakePair.sol\";\r\n\r\ncontract TestSwapContract {\r\n    address private constant FACTORY = 0xcA143Ce32Fe78f1f7019d7d551a6402fC5350c73;\r\n\r\n    event Log(string message, uint value);\r\n\r\n    uint temp = 0;\r\n\r\n    function set(uint _data) public payable {\r\n        temp = _data;\r\n        emit Log(\"Value set:\", temp);\r\n    }\r\n\r\n    function get() public view returns (uint){\r\n        return temp;\r\n    }\r\n\r\n    function swap(string memory something) public {\r\n        //address pair = IPancakeFactory(FACTORY).getPair(token0, token1);\r\n        //uint amount0Out = token0 == IPancakePair(pair).token0() ? amount0 : 0;\r\n        //uint amount1Out = token0 == IPancakePair(pair).token1() ? amount0 : 0;\r\n        emit Log(\"amount0Out\", 1);\r\n        emit Log(\"amount1Out\", 2);\r\n        emit Log(something, 3);\r\n    }\r\n}\r\n",
  "sourcePath": "C:\\Users\\Micha\\Desktop\\Programming Stuff\\Git\\solidity\\box\\contracts\\testSwap.sol",
  "compiler": {
    "name": "solc",
    "version": "0.5.17+commit.d19bba13.Emscripten.clang"
  },
  "schemaVersion": "3.4.3",
  "updatedAt": "2021-09-15T17:04:50.901Z",
  "networkType": "ethereum",
  "devdoc": {
    "methods": {}
  },
  "userdoc": {
    "methods": {}
  }
}