{
  "contractName": "TestSwapContract",
  "abi": [
    {
      "inputs": [
        {
          "internalType": "address",
          "name": "factoryAddress",
          "type": "address"
        }
      ],
      "payable": false,
      "stateMutability": "nonpayable",
      "type": "constructor"
    },
    {
      "anonymous": false,
      "inputs": [
        {
          "indexed": false,
          "internalType": "string",
          "name": "message",
          "type": "string"
        },
        {
          "indexed": false,
          "internalType": "uint256",
          "name": "value",
          "type": "uint256"
        }
      ],
      "name": "Log",
      "type": "event"
    },
    {
      "constant": false,
      "inputs": [
        {
          "internalType": "address",
          "name": "token0",
          "type": "address"
        },
        {
          "internalType": "address",
          "name": "token1",
          "type": "address"
        },
        {
          "internalType": "uint256",
          "name": "amount0",
          "type": "uint256"
        }
      ],
      "name": "swap",
      "outputs": [],
      "payable": false,
      "stateMutability": "nonpayable",
      "type": "function"
    }
  ],
  "bytecode": "0x608060405234801561001057600080fd5b506040516105513803806105518339818101604052602081101561003357600080fd5b81019080805190602001909291905050507fdd970dd9b5bfe707922155b058a407655cb18288b807e2216442bca8ad83d6b560016040518080602001838152602001828103825260128152602001807f436f6e7374727563746f722063616c6c656400000000000000000000000000008152506020019250505060405180910390a1806000806101000a81548173ffffffffffffffffffffffffffffffffffffffff021916908373ffffffffffffffffffffffffffffffffffffffff1602179055505061044c806101056000396000f3fe608060405234801561001057600080fd5b506004361061002b5760003560e01c8063df791e5014610030575b600080fd5b61009c6004803603606081101561004657600080fd5b81019080803573ffffffffffffffffffffffffffffffffffffffff169060200190929190803573ffffffffffffffffffffffffffffffffffffffff1690602001909291908035906020019092919050505061009e565b005b60008060009054906101000a900473ffffffffffffffffffffffffffffffffffffffff1673ffffffffffffffffffffffffffffffffffffffff1663e6a4390585856040518363ffffffff1660e01b8152600401808373ffffffffffffffffffffffffffffffffffffffff1673ffffffffffffffffffffffffffffffffffffffff1681526020018273ffffffffffffffffffffffffffffffffffffffff1673ffffffffffffffffffffffffffffffffffffffff1681526020019250505060206040518083038186803b15801561017257600080fd5b505afa158015610186573d6000803e3d6000fd5b505050506040513d602081101561019c57600080fd5b8101908080519060200190929190505050905060008173ffffffffffffffffffffffffffffffffffffffff16630dfe16816040518163ffffffff1660e01b815260040160206040518083038186803b1580156101f757600080fd5b505afa15801561020b573d6000803e3d6000fd5b505050506040513d602081101561022157600080fd5b810190808051906020019092919050505073ffffffffffffffffffffffffffffffffffffffff168573ffffffffffffffffffffffffffffffffffffffff161461026b57600061026d565b825b905060008273ffffffffffffffffffffffffffffffffffffffff1663d21220a76040518163ffffffff1660e01b815260040160206040518083038186803b1580156102b757600080fd5b505afa1580156102cb573d6000803e3d6000fd5b505050506040513d60208110156102e157600080fd5b810190808051906020019092919050505073ffffffffffffffffffffffffffffffffffffffff168673ffffffffffffffffffffffffffffffffffffffff161461032b57600061032d565b835b90507fdd970dd9b5bfe707922155b058a407655cb18288b807e2216442bca8ad83d6b58260405180806020018381526020018281038252600a8152602001807f616d6f756e74304f7574000000000000000000000000000000000000000000008152506020019250505060405180910390a17fdd970dd9b5bfe707922155b058a407655cb18288b807e2216442bca8ad83d6b58160405180806020018381526020018281038252600a8152602001807f616d6f756e74314f7574000000000000000000000000000000000000000000008152506020019250505060405180910390a150505050505056fea265627a7a723158207f54e6b1c1a65738983c556d3bf82e5333d9735d6e3862c6a58699932788bc7264736f6c63430005110032",
  "source": "pragma solidity ^0.5.0;\r\n\r\nimport \"./interfaces/IPancakeFactory.sol\";\r\nimport \"./interfaces/IPancakePair.sol\";\r\n\r\ncontract TestSwapContract {\r\n    address private FACTORY;\r\n\r\n    event Log(string message, uint value);\r\n\r\n    constructor(address factoryAddress) public {\r\n        emit Log(\"Constructor called\", 1);\r\n        FACTORY = factoryAddress;\r\n    }\r\n\r\n    function swap(address token0, address token1, uint amount0) public {\r\n        address pair = IPancakeFactory(FACTORY).getPair(token0, token1);\r\n        uint amount0Out = token0 == IPancakePair(pair).token0() ? amount0 : 0;\r\n        uint amount1Out = token0 == IPancakePair(pair).token1() ? amount0 : 0;\r\n        emit Log(\"amount0Out\", amount0Out);\r\n        emit Log(\"amount1Out\", amount1Out);\r\n    }\r\n}\r\n",
  "sourcePath": "C:\\Users\\Micha\\WebstormProjects\\solidity\\box\\contracts\\testSwap.sol",
  "compiler": {
    "name": "solc",
    "version": "0.5.17+commit.d19bba13.Emscripten.clang"
  },
  "schemaVersion": "3.4.3",
  "updatedAt": "2021-09-15T09:04:59.032Z",
  "devdoc": {
    "methods": {}
  },
  "userdoc": {
    "methods": {}
  }
}