{
  "contractName": "TestSwapContract",
  "abi": [
    {
      "inputs": [],
      "stateMutability": "nonpayable",
      "type": "constructor"
    },
    {
      "anonymous": false,
      "inputs": [
        {
          "indexed": false,
          "internalType": "string",
          "name": "message",
          "type": "string"
        },
        {
          "indexed": false,
          "internalType": "uint256",
          "name": "value",
          "type": "uint256"
        }
      ],
      "name": "Log",
      "type": "event"
    },
    {
      "anonymous": false,
      "inputs": [
        {
          "indexed": false,
          "internalType": "address",
          "name": "test",
          "type": "address"
        }
      ],
      "name": "Test",
      "type": "event"
    },
    {
      "stateMutability": "payable",
      "type": "receive"
    },
    {
      "inputs": [
        {
          "internalType": "address",
          "name": "_token0",
          "type": "address"
        },
        {
          "internalType": "address",
          "name": "_token1",
          "type": "address"
        },
        {
          "internalType": "uint256",
          "name": "_amount",
          "type": "uint256"
        },
        {
          "internalType": "string[]",
          "name": "_providerPath",
          "type": "string[]"
        }
      ],
      "name": "execute",
      "outputs": [],
      "stateMutability": "payable",
      "type": "function"
    },
    {
      "inputs": [
        {
          "internalType": "address",
          "name": "_sender",
          "type": "address"
        },
        {
          "internalType": "uint256",
          "name": "_amount0",
          "type": "uint256"
        },
        {
          "internalType": "uint256",
          "name": "_amount1",
          "type": "uint256"
        },
        {
          "internalType": "bytes",
          "name": "_data",
          "type": "bytes"
        }
      ],
      "name": "apeCall",
      "outputs": [],
      "stateMutability": "nonpayable",
      "type": "function"
    }
  ],
  "bytecode": "0x60a060405234801561001057600080fd5b50600073cf083be4164828f00cae704ec15a36d7114912849050600073c0788a3ad43d79aa53b09c2eacc313a787d1d60790508173ffffffffffffffffffffffffffffffffffffffff1660808173ffffffffffffffffffffffffffffffffffffffff1660601b81525050505060805160601c6110b96100a0600039600081816082015261044b01526110b96000f3fe60806040526004361061002d5760003560e01c806370e98fb914610039578063becda3631461005557610034565b3661003457005b600080fd5b610053600480360381019061004e91906107fc565b61007e565b005b34801561006157600080fd5b5061007c6004803603810190610077919061087f565b61042a565b005b60007f000000000000000000000000000000000000000000000000000000000000000073ffffffffffffffffffffffffffffffffffffffff1663e6a4390586866040518363ffffffff1660e01b81526004016100db929190610abb565b60206040518083038186803b1580156100f357600080fd5b505afa158015610107573d6000803e3d6000fd5b505050506040513d601f19601f8201168201806040525081019061012b919061074c565b9050600073ffffffffffffffffffffffffffffffffffffffff168173ffffffffffffffffffffffffffffffffffffffff16141561019d576040517f08c379a000000000000000000000000000000000000000000000000000000000815260040161019490610b30565b60405180910390fd5b60008173ffffffffffffffffffffffffffffffffffffffff16630dfe16816040518163ffffffff1660e01b815260040160206040518083038186803b1580156101e557600080fd5b505afa1580156101f9573d6000803e3d6000fd5b505050506040513d601f19601f8201168201806040525081019061021d919061074c565b73ffffffffffffffffffffffffffffffffffffffff168673ffffffffffffffffffffffffffffffffffffffff1614610256576000610258565b835b905060008273ffffffffffffffffffffffffffffffffffffffff1663d21220a76040518163ffffffff1660e01b815260040160206040518083038186803b1580156102a257600080fd5b505afa1580156102b6573d6000803e3d6000fd5b505050506040513d601f19601f820116820180604052508101906102da919061074c565b73ffffffffffffffffffffffffffffffffffffffff168773ffffffffffffffffffffffffffffffffffffffff1614610313576000610315565b845b90507fdd970dd9b5bfe707922155b058a407655cb18288b807e2216442bca8ad83d6b5826040516103469190610b7e565b60405180910390a17fdd970dd9b5bfe707922155b058a407655cb18288b807e2216442bca8ad83d6b58160405161037d9190610bac565b60405180910390a160008787878760405160200161039e9493929190610ae4565b60405160208183030381529060405290508373ffffffffffffffffffffffffffffffffffffffff1663022c0d9f848430856040518563ffffffff1660e01b81526004016103ee9493929190610bda565b600060405180830381600087803b15801561040857600080fd5b505af115801561041c573d6000803e3d6000fd5b505050505050505050505050565b600080600080858581019061043f9190610779565b935093509350935060007f000000000000000000000000000000000000000000000000000000000000000073ffffffffffffffffffffffffffffffffffffffff1663e6a4390586866040518363ffffffff1660e01b81526004016104a4929190610abb565b60206040518083038186803b1580156104bc57600080fd5b505afa1580156104d0573d6000803e3d6000fd5b505050506040513d601f19601f820116820180604052508101906104f4919061074c565b9050600060016103e560038661050a9190610db1565b6105149190610d80565b61051e9190610d2a565b90506000818561052e9190610d2a565b90507fdd970dd9b5bfe707922155b058a407655cb18288b807e2216442bca8ad83d6b5602a6040516105609190610b50565b60405180910390a1505050505050505050505050565b600061058961058484610c4b565b610c26565b905080838252602082019050828560208602820111156105ac576105ab610f75565b5b60005b858110156105fa57813567ffffffffffffffff8111156105d2576105d1610f70565b5b8086016105df8982610709565b855260208501945060208401935050506001810190506105af565b5050509392505050565b600061061761061284610c77565b610c26565b90508281526020810184848401111561063357610632610f7a565b5b61063e848285610e6b565b509392505050565b6000813590506106558161103e565b92915050565b60008151905061066a8161103e565b92915050565b60008135905061067f81611055565b92915050565b600082601f83011261069a57610699610f70565b5b81356106aa848260208601610576565b91505092915050565b60008083601f8401126106c9576106c8610f70565b5b8235905067ffffffffffffffff8111156106e6576106e5610f6b565b5b60208301915083600182028301111561070257610701610f75565b5b9250929050565b600082601f83011261071e5761071d610f70565b5b813561072e848260208601610604565b91505092915050565b6000813590506107468161106c565b92915050565b60006020828403121561076257610761610f84565b5b60006107708482850161065b565b91505092915050565b6000806000806080858703121561079357610792610f84565b5b60006107a187828801610670565b94505060206107b287828801610670565b93505060406107c387828801610737565b925050606085013567ffffffffffffffff8111156107e4576107e3610f7f565b5b6107f087828801610685565b91505092959194509250565b6000806000806080858703121561081657610815610f84565b5b600061082487828801610646565b945050602061083587828801610646565b935050604061084687828801610737565b925050606085013567ffffffffffffffff81111561086757610866610f7f565b5b61087387828801610685565b91505092959194509250565b60008060008060006080868803121561089b5761089a610f84565b5b60006108a988828901610646565b95505060206108ba88828901610737565b94505060406108cb88828901610737565b935050606086013567ffffffffffffffff8111156108ec576108eb610f7f565b5b6108f8888289016106b3565b92509250509295509295909350565b600061091383836109e7565b905092915050565b61092481610e0b565b82525050565b600061093582610cb8565b61093f8185610ce6565b93508360208202850161095185610ca8565b8060005b8581101561098d578484038952815161096e8582610907565b945061097983610cd9565b925060208a01995050600181019050610955565b50829750879550505050505092915050565b60006109aa82610cc3565b6109b48185610cf7565b93506109c4818560208601610e7a565b6109cd81610f89565b840191505092915050565b6109e181610e59565b82525050565b60006109f282610cce565b6109fc8185610d08565b9350610a0c818560208601610e7a565b610a1581610f89565b840191505092915050565b6000610a2d601383610d19565b9150610a3882610f9a565b602082019050919050565b6000610a50600783610d19565b9150610a5b82610fc3565b602082019050919050565b6000610a73600a83610d19565b9150610a7e82610fec565b602082019050919050565b6000610a96600a83610d19565b9150610aa182611015565b602082019050919050565b610ab581610e4f565b82525050565b6000604082019050610ad0600083018561091b565b610add602083018461091b565b9392505050565b6000608082019050610af9600083018761091b565b610b06602083018661091b565b610b136040830185610aac565b8181036060830152610b25818461092a565b905095945050505050565b60006020820190508181036000830152610b4981610a20565b9050919050565b60006040820190508181036000830152610b6981610a43565b9050610b7860208301846109d8565b92915050565b60006040820190508181036000830152610b9781610a66565b9050610ba66020830184610aac565b92915050565b60006040820190508181036000830152610bc581610a89565b9050610bd46020830184610aac565b92915050565b6000608082019050610bef6000830187610aac565b610bfc6020830186610aac565b610c09604083018561091b565b8181036060830152610c1b818461099f565b905095945050505050565b6000610c30610c41565b9050610c3c8282610ead565b919050565b6000604051905090565b600067ffffffffffffffff821115610c6657610c65610f3c565b5b602082029050602081019050919050565b600067ffffffffffffffff821115610c9257610c91610f3c565b5b610c9b82610f89565b9050602081019050919050565b6000819050602082019050919050565b600081519050919050565b600081519050919050565b600081519050919050565b6000602082019050919050565b600082825260208201905092915050565b600082825260208201905092915050565b600082825260208201905092915050565b600082825260208201905092915050565b6000610d3582610e4f565b9150610d4083610e4f565b9250827fffffffffffffffffffffffffffffffffffffffffffffffffffffffffffffffff03821115610d7557610d74610ede565b5b828201905092915050565b6000610d8b82610e4f565b9150610d9683610e4f565b925082610da657610da5610f0d565b5b828204905092915050565b6000610dbc82610e4f565b9150610dc783610e4f565b9250817fffffffffffffffffffffffffffffffffffffffffffffffffffffffffffffffff0483118215151615610e0057610dff610ede565b5b828202905092915050565b6000610e1682610e2f565b9050919050565b6000610e2882610e2f565b9050919050565b600073ffffffffffffffffffffffffffffffffffffffff82169050919050565b6000819050919050565b6000610e6482610e4f565b9050919050565b82818337600083830152505050565b60005b83811015610e98578082015181840152602081019050610e7d565b83811115610ea7576000848401525b50505050565b610eb682610f89565b810181811067ffffffffffffffff82111715610ed557610ed4610f3c565b5b80604052505050565b7f4e487b7100000000000000000000000000000000000000000000000000000000600052601160045260246000fd5b7f4e487b7100000000000000000000000000000000000000000000000000000000600052601260045260246000fd5b7f4e487b7100000000000000000000000000000000000000000000000000000000600052604160045260246000fd5b600080fd5b600080fd5b600080fd5b600080fd5b600080fd5b600080fd5b6000601f19601f8301169050919050565b7f5061697220646f6573206e6f7420657869737400000000000000000000000000600082015250565b7f5375636365737300000000000000000000000000000000000000000000000000600082015250565b7f616d6f756e74304f757400000000000000000000000000000000000000000000600082015250565b7f616d6f756e74314f757400000000000000000000000000000000000000000000600082015250565b61104781610e0b565b811461105257600080fd5b50565b61105e81610e1d565b811461106957600080fd5b50565b61107581610e4f565b811461108057600080fd5b5056fea2646970667358221220d31e90e33bc07aac04b77563f1fb7fa24fb5257ebb9a320519c6172807740b4e64736f6c63430008070033",
  "immutableReferences": {
    "9": [
      {
        "length": 32,
        "start": 130
      },
      {
        "length": 32,
        "start": 1099
      }
    ]
  },
  "source": "// SPDX-License-Identifier: UNLICENSED\r\n\r\n//import \"../dependencies/interfaces/IPancakeRouter02.sol\";\r\n//import \"../dependencies/interfaces/IPancakeFactory.sol\";\r\n//import \"../dependencies/interfaces/IPancakeCallee.sol\";\r\n//import \"../dependencies/interfaces/IPancakePair.sol\";\r\n//import \"../dependencies/interfaces/IERC20.sol\";\r\n//import \"../dependencies/interfaces/IWETH.sol\";\r\n\r\npragma solidity ^0.8.0;\r\n\r\n\r\nimport \"../dependencies/interfaces/IApeCallee.sol\";\r\nimport \"../dependencies/interfaces/IApeFactory.sol\";\r\nimport \"../dependencies/interfaces/IApePair.sol\";\r\n\r\ncontract TestSwapContract is IApeCallee {\r\n//    IPancakeFactory immutable FACTORY;\r\n//    IPancakeRouter02 immutable ROUTER;\r\n//    IWETH immutable WETH;\r\n    IApeFactory immutable FACTORY;\r\n\r\n\r\n    constructor() {\r\n        address factory = 0xCf083Be4164828f00cAE704EC15a36D711491284;\r\n        address router = 0xC0788A3aD43d79aa53B09c2EaCc313A787d1d607;\r\n        FACTORY = IApeFactory(factory);\r\n//        ROUTER = IPancakeRouter02(router);\r\n//        WETH = IWETH(IPancakeRouter02(router).WETH());\r\n    }\r\n    receive() external payable {}\r\n    event Test(address test);\r\n    event Log(string message, uint value);\r\n\r\n\r\n    function execute(address _token0, address _token1, uint _amount, string[] memory _providerPath) public payable {\r\n        address pair = FACTORY.getPair(_token0, _token1);\r\n        require(pair != address(0), \"Pair does not exist\");\r\n\r\n        uint amount0Out = _token0 == IApePair(pair).token0() ? _amount : 0;\r\n        uint amount1Out = _token0 == IApePair(pair).token1() ? _amount : 0;\r\n        emit Log(\"amount0Out\", amount0Out);\r\n        emit Log(\"amount1Out\", amount1Out);\r\n        bytes memory data = abi.encode(_token0, _token1, _amount, _providerPath);\r\n        //        pancakeCall2(address(this), amount0Out, amount1Out, data);\r\n        IApePair(pair).swap(amount0Out, amount1Out, address(this), data);\r\n    }\r\n\r\n    function apeCall(address _sender, uint _amount0, uint _amount1, bytes calldata _data) external override {\r\n        (address token0, address token1, uint amount, string[] memory providerPath) = abi.decode(_data, (address, address, uint, string[]));\r\n        address pair = FACTORY.getPair(token0, token1);\r\n        //require(pair == msg.sender, \"Function sender is not a pair\"); UNCOMMENT AFTERWARDS\r\n        uint fee = ((amount * 3) / 997) + 1;\r\n        uint amountToRepay = amount + fee;\r\n\r\n        //        address token0 = IPancakePair(msg.sender).token0();\r\n        //        address token1 = IPancakePair(msg.sender).token1();\r\n\r\n        //        WETH.deposit{value : amountToRepay}();\r\n        //        require(WETH.transfer(msg.sender, amountToRepay), \"WETH transfer failed\");\r\n//        IERC20(token0).transfer(pair, amountToRepay);\r\n        emit Log(\"Success\", 42);\r\n    }\r\n\r\n}\r\n",
  "sourcePath": "C:\\Users\\fabio.kreisern\\WebstormProjects\\solidity\\fabiosBox\\contracts\\fabioSwap.sol",
  "compiler": {
    "name": "solc",
    "version": "0.8.7+commit.e28d00a7.Emscripten.clang"
  },
  "schemaVersion": "3.4.3",
  "updatedAt": "2021-09-21T10:44:36.210Z",
  "devdoc": {
    "kind": "dev",
    "methods": {},
    "version": 1
  },
  "userdoc": {
    "kind": "user",
    "methods": {},
    "version": 1
  }
}